:020000040800F2
:1000000060300020990100088D03000837030008C4
:10001000890300080D020008D70D00080000000049
:1000200000000000000000000000000001010008C6
:1000300011020008000000004501000849090008FD
:10004000B3010008B3010008B3010008B3010008C0
:10005000B3010008B3010008B3010008B3010008B0
:10006000B3010008B3010008B3010008B3010008A0
:10007000B3010008B3010008B3010008B301000890
:10008000B3010008B3010008B3010008B301000880
:10009000B3010008B3010008B3010008B301000870
:1000A000B3010008B3010008B3010008B301000860
:1000B000B3010008B3010008B3010008B301000850
:1000C000B3010008B3010008B3010008B301000840
:1000D000B3010008D10A0008B3010008B301000809
:1000E000B3010008B3010008B3010008DFF80CD029
:1000F00000F07AF8004800477D11000860300020C9
:10010000224B19680868B0E8F00F80F30988BFF344
:100110006F8F4FF0000080F311884EF00D0E704786
:100120000000000006480068006880F3088862B696
:1001300061B6BFF34F8FBFF36F8F00DF00BF00BF0B
:1001400008ED00E0EFF30980BFF36F8F0F4B1A68E3
:1001500020E9F00F106008B54FF0500080F31188CF
:10016000BFF34F8FBFF36F8F01F0C4FE4FF000005D
:1001700080F31188BDE8084019680868B0E8F00FFE
:1001800080F30988BFF36F8F704700BF40000020E5
:10019000EFF3058070470000064880470648004797
:1001A000FEE7FEE7FEE7FEE7FEE7FEE7FEE7FEE727
:1001B000FEE7FEE7D9090008ED00000830B50B4660
:1001C000014600202022012409E021FA02F59D4287
:1001D00005D303FA02F5491B04FA02F52844151E5B
:1001E000A2F10102F1DC30BD064C074D06E0E068EB
:1001F00040F0010394E8070098471034AC42F6D36E
:10020000FFF778FF782C0008982C000800BFFEE765
:1002100070472DE9F041024600250026002000230A
:100220000024002791F803C00CF00F0591F803C0DB
:100230000CF0100CBCF1000F03D091F802C04CEA96
:10024000050591F800C0BCF1000F31D01468002002
:100250002BE04FF0010C0CFA00F3B1F800C00CEAEF
:1002600003069E4220D183004FF00F0C0CFA03F7D7
:10027000BC4305FA03FC4CEA040491F803C0BCF14A
:10028000280F06D14FF0010C0CFA00FCC2F814C084
:100290000AE091F803C0BCF1480F05D14FF0010C02
:1002A0000CFA00FCC2F810C0401C0828D1D314601E
:1002B000B1F800C0BCF1FF0F34DD546800202EE01F
:1002C00000F1080C4FF0010808FA0CF3B1F800C077
:1002D0000CEA03069E4221D183004FF00F0C0CFA6A
:1002E00003F7BC4305FA03FC4CEA040491F803C08D
:1002F000BCF1280F05D100F1080C08FA0CF8C2F87F
:10030000148091F803C0BCF1480F07D100F1080C2C
:100310004FF0010808FA0CF8C2F81080401C0828B9
:10032000CED35460BDE8F081016170470AB101612C
:1003300000E04161704700BFFEE7000008B5012101
:100340000C2000F0FFF92020ADF8000010208DF8FF
:10035000030003208DF8020069460948FFF759FFA2
:1003600020210748FFF7E0FF2020ADF80000694694
:100370000448FFF74EFF20210248FFF7D5FF08BDD4
:10038000000C01400008014000BFFEE7704700007C
:1003900070B5002100230F22C47804B3154C2468E3
:1003A00004F4E064C4F5E064210AC1F10403CA4026
:1003B000447804FA03F184781440214309010E4C77
:1003C0000678A155047804F01F050124AC40057897
:1003D0006D11AD0005F1E025C5F8004109E0047894
:1003E00004F01F050124AC40044D0678761145F851
:1003F000264070BD0CED00E000E400E080E100E08C
:1004000002490143024A1160704700000000FA05EA
:100410000CED00E070B500240EE00021204600F055
:10042000F0F8002504E0002000F07CF9681CC5B25B
:10043000802DF8DB601CC4B2082CEEDB70BD000020
:1004400008B50121082000F07DF914208DF8030083
:1004500003208DF802004FF48070ADF8000069466B
:100460000A48FFF7D6FE4FF40070ADF80000694669
:100470000648FFF7CEFE012211020448FFF756FF9F
:10048000012251020148FFF751FF08BD000C014055
:1004900070B50546002415E08020204100EA0502E1
:1004A0004FF400710E48FFF741FF012211020C4882
:1004B000FFF73CFF00224FF480710948FFF736FF39
:1004C000601CC4B2082CE7DB012211020448FFF7CC
:1004D0002DFF00224FF480710148FFF727FF70BD08
:1004E000000C014010B5012251020A48FFF71EFF1F
:1004F000012211020748FFF719FF00224FF4007193
:100500000448FFF713FF00224FF480710148FFF702
:100510000DFF10BD000C014010B500224FF400711A
:100520000648FFF703FF012211020448FFF7FEFE11
:10053000012251020148FFF7F9FE10BD000C0140F5
:1005400070B5002406E0002500E06D1CB5F57A7F4B
:10055000FBD3641CB4F57A7FF5D3FFF771FFAE20AF
:1005600000F0D0F8D52000F0CDF8802000F0CAF8D7
:10057000A82000F0C7F83F2000F0C4F8D32000F016
:10058000C1F8002000F0BEF8402000F0BBF8A12028
:1005900000F0B8F8C82000F0B5F8DA2000F0B2F8A2
:1005A000122000F0AFF8812000F0ACF8CF2000F06E
:1005B000A9F8D92000F0A6F8F12000F0A3F8DB207C
:1005C00000F0A0F8302000F09DF8A42000F09AF888
:1005D000A62000F097F88D2000F094F8142000F089
:1005E00091F8AF2000F08EF8FFF714FF70BD10B542
:1005F0000246012000E050430B1EA1F10101FAD197
:1006000010BD70B505460C4645F0B00000F07AF814
:10061000102141EA141000F075F804F00F0000F00A
:1006200071F870BD2DE9F04105460E461746721E61
:10063000D206110E6A1E5206100EFFF7E2FF0024CA
:1006400009E0A7F12001134A02EB0111085D00F057
:1006500069F8601CC4B2082CF3DB721ED206110EBE
:100660006A1E012303EB4202D0B2FFF7CAFF002447
:100670000BE0A7F12001074A02EB011204F1080187
:10068000505C00F04FF8601CC4B2082CF1DBBDE8F0
:10069000F0810000882600082DE9F04780460E46CC
:1006A00017461D46002415E0281B411E0A20FFF7AF
:1006B0009EFFB7FBF0F00A21B0FBF1F201FB120044
:1006C00000F130093019C1B24A464046FFF7AAFF8F
:1006D000601CC4B2AC42E7DBBDE8F0872DE9F04115
:1006E00007460E461546002407E02A5D3019C1B2C0
:1006F0003846FFF797FF601CC4B2285D0028F4D18C
:10070000BDE8F08110B50446FFF7ECFE7820FFF756
:10071000BFFE0020FFF7BCFE2046FFF7B9FEFFF743
:10072000FBFE10BD10B50446FFF7DCFE7820FFF796
:10073000AFFE4020FFF7ACFE2046FFF7A9FEFFF713
:10074000EBFE10BD29B1064A92690243044B9A613F
:1007500004E0034A92698243014B9A6170470000AA
:100760000010024030B500210022002400232D4D4E
:100770006D6805F00C0121B1042905D0082923D1A9
:1007800005E0294D056022E0274D05601FE0254D5D
:100790006D6805F47012234D6D6805F480340225F0
:1007A00005EB92421CB9214D554305600BE01D4DF0
:1007B0006D6805F400351DB11C4D5543056002E020
:1007C000194D5543056002E0174D056000BF00BF9D
:1007D000144D6D6805F0F0010909154D6B5C056855
:1007E000DD4045600F4D6D6805F4E061090A104D6C
:1007F0006B5C4568DD4085600A4D6D6805F46051AD
:10080000C90A0B4D6B5C4568DD40C560054D6D68E0
:1008100005F44041890B074D6B5CC568B5FBF3F5EA
:10082000056130BD0010024000127A0000093D0051
:10083000100000202000002010B500F001F810BDCD
:100840000CB50020019000903348006840F48030DF
:100850003149086000BF3048006800F40030009063
:100860000198401C0190009818B90198B0F5A06F4C
:10087000F1D12948006800F4003010B10120009047
:1008800001E0002000900098012843D1234800682F
:1008900040F01000214908600846006820F003007D
:1008A00008600846006840F0020008601A48406886
:1008B000194948600846406848600846406840F466
:1008C000806048600846406820F47C104860084614
:1008D000406840F4E81048600846006840F08070C6
:1008E000086000BF0C48006800F000700028F9D0D4
:1008F0000948406820F003000749486008464068FE
:1009000040F00200486000BF0348406800F00C005F
:100910000828F9D10CBD0000001002400020024060
:10092000042808D14FF0E021096941F004014FF09B
:10093000E022116107E04FF0E021096921F0040194
:100940004FF0E0221161704710B500BF502080F3D6
:100950001188BFF34F8FBFF36F8F00BF01F0E2FC30
:1009600018B14FF080500449086000BF002080F3A8
:10097000118800BF10BD000004ED00E070B5054611
:100980000420FFF7CDFF104800681049B0FBF1F0DC
:100990000F4908700C4800680C49B0FBF1F44FF4A3
:1009A0007A70444301200B4908804FF0E020006931
:1009B00040F002004FF0E021086108464461006900
:1009C00040F00100086170BD2400002040420F008B
:1009D0003A0000203C00002010B51348006840F0A9
:1009E00001001149086008464068104908400E4956
:1009F0004860084600680E4908400B4908600846F0
:100A0000006820F4802008600846406820F4FE005A
:100A100048604FF41F008860FFF70EFF4FF0006042
:100A20000449086010BD0000001002400000FFF8FB
:100A3000FFFFF6FE08ED00E00124002517E000208E
:100A400000F0CCF90546022D0ED1002211461046C9
:100A500000F09CFF044624B1611E05A000F00CFAD2
:100A600002E00FA000F008FA142001F021F9E6E7F7
:100A70004B455931B1BBB0B4CFC2A3ACB3C9B9A6D1
:100A8000C9EAC7EBB5BDCDA3B3B5CEBBA3ACB5B179
:100A9000C7B0B3B5CEBBCEAA202564200D0A000096
:100AA0004B455931B1BBB0B4CFC2A3ACB3B5CEBB8B
:100AB000D2D1BEADC3BBD3D0C1CBA3ACC7EBB0B416
:100AC0004B455930CACDB7C5B3B5CEBB0D0A0000F2
:100AD00010B540F225511D4800F0B8F810B31B487E
:100AE00000F070F9C4B21A48008800F40040C8B998
:100AF0001748008800F4804060B10A2C03D0002021
:100B00001349088020E01248008840F40040104952
:100B1000088019E00D2C06D10D48008840F4804073
:100B20000B49088010E00A480088C0F30D0009490D
:100B30000C5407480088401C054908800846008876
:100B4000C72801DD0020088010BD000000380140EA
:100B50003E000020B000002010B586B00446012100
:100B60000420FFF7EFFD01218803FFF7EBFD4FF4B1
:100B70000070ADF8140003208DF8160018208DF8D1
:100B8000170005A91E48FFF744FB4FF48060ADF83D
:100B9000140004208DF8170005A91948FFF739FB48
:100BA00001940020ADF80800ADF80A00ADF80C0083
:100BB000ADF810000C20ADF80E0001A9114800F0AE
:100BC00095F801210F4800F028F840210D4800F069
:100BD0001BF8012240F225510A4800F061F8252057
:100BE0008DF8000003208DF801008DF8020001202F
:100BF0008DF803006846FFF7CBFB06B010BD000080
:100C0000000801400038014001F40072B2F5007F95
:100C100000D100BFCA430280704721B1828942F4EB
:100C20000052828104E082894DF6FF731A4082816E
:100C3000704702460020B1F5007F00D100BF138845
:100C40000B400BB1012000E00020704770B5024658
:100C5000002400230025002040F66A16B14200D18E
:100C600000BFC1F3421501F01F03012606FA03F38A
:100C7000012D02D19689334006E0022D02D1168A59
:100C8000334001E0968A33400C12012606FA04F440
:100C90001688344013B10CB1012000E0002070BD73
:100CA000F0B50346002400260025002040F66A1710
:100CB000B94200D100BF1846C1F3421401F01F062B
:100CC000012707FA06F5012C01D10C3004E0022CB3
:100CD00001D1103000E014301AB107682F430760CB
:100CE00002E00768AF430760F0BD00002DE9F04760
:100CF00086B005460E460024A24600BFA146002746
:100D0000B08900B100BF2F462C8A4CF6FF7004401A
:100D1000F08804432C82AC894EF6F3100440B0886E
:100D200031890843718908430443AC81AC8A4FF68A
:100D3000FF400440B0890443AC8201A8FFF712FDD4
:100D40001F48874202D1DDF810A001E0DDF80CA0B9
:100D5000A88900F4004040B10AEBCA0000EB0A1079
:100D600031684900B0FBF1F807E00AEBCA0000EB7C
:100D70000A1031688900B0FBF1F86420B8FBF0F08C
:100D800004012009642101FB1089A88900F40040B6
:100D900040B1322000EBC900B0FBF1F000F00700D9
:100DA000044308E0322000EB09106421B0FBF1F0AD
:100DB00000F00F0004432C8106B0BDE8F08700006E
:100DC0000038014001468888C0F308007047C1F32D
:100DD00008028280704700BFFEE7000010B504469D
:100DE000012C01D1174908701648007801281AD142
:100DF00015480068012804D01348001D0068012828
:100E000011D10A2000F034F900200E4908700E4874
:100E10000068012800D110BD0B48001D00680128A2
:100E20000DD10220F7E708480068012807D00648DE
:100E3000001D0068012802D001200249087000202E
:100E4000E9E70000380000202881214208B501218F
:100E50000820FFF777FC4FF44060ADF80000282031
:100E60008DF8030003208DF8020069460148FFF762
:100E7000D0F908BD000C01400FB4054B10B503A913
:100E8000044A029800F018F810BC5DF814FB00004A
:100E9000F9100008AC00002002E008C8121F08C1C9
:100EA000002AFAD170477047002001E001C1121FEB
:100EB000002AFBD1704700002DE9FF4F8BB09A4606
:100EC0000F460546002606E025280BD052460D9910
:100ED00090476D1C761C28780028F5D10FB030465D
:100EE000BDE8F08F0024A0460122604900E00443E1
:100EF00015F8013F203B02FA03F00842F7D12878A9
:100F00002E2817D115F8010F44F004042A280ED01A
:100F10006FF02F022878A0F1300109290AD808EBD8
:100F2000880102EB410100EB01086D1CF2E757F864
:100F3000048B6D1C287869283ED006DC0028CDD0B3
:100F400063280BD0642804D136E0732810D07528AC
:100F50004BD052460D999047761C85E017F8040B4C
:100F60008DF8000000208DF80100E946012003E023
:100F700057F8049B4FF0FF3061074FF0000401D495
:100F80000AE0641C44450DDA8442FADB19F80410C7
:100F90000029F6D106E0641C8442FCDB19F8041039
:100FA0000029F8D1264404E019F8010B52460D99A6
:100FB0009047641EF8D257E001CF4FF00A0B00288B
:100FC00002DA40422D2102E0210504D52B218DF8C3
:100FD0002410012103E0E10705D02021F7E70DF1FE
:100FE000200908910CE00021F9E701CF4FF00A0B2E
:100FF000F9E75946FFF7E2F801F1300209F8012D4F
:101000000028F6D1ADEB090000F1200B600701D4F8
:101010004FF00108D84502DDA8EB0B0000E00020EE
:101020008046002406E009A85246005D0D999047CD
:10103000641C761C08988442F5DB04E0302052469C
:101040000D999047761CB8F10001A8F10108F5DC74
:1010500005E019F8010B52460D999047761CBBF13B
:101060000001ABF1010BF4DC6D1C34E70928010031
:1010700070B5044601F046F9012810D00B480088ED
:10108000844206D309480088B4FBF0F5284600F0F6
:101090000FFE06480088B4FBF0F100FB11444FF44A
:1010A0007A7104FB01F000F003F870BD3C000020F1
:1010B00070B5034600224FF0E02675690D4E367874
:1010C00003FB06F44FF0E026B16910E04FF0E02694
:1010D000B06988420BD0884202D20E1A324402E034
:1010E0002E1A0E4432440146A24200D300E0EDE73E
:1010F00000BF70BD3A00002070B504460D46E1B255
:101100000548FFF764FE00BF80210348FFF791FD0B
:101110000028F9D0204670BD0038014008B50124F0
:10112000002517E00020FFF759FE0546012D0ED1DE
:10113000002002230246014600900748006800F0A4
:10114000FBFF0446012C02D104A0FFF795FE1420FA
:1011500000F0AEFDE6E700000C0000204B455930E2
:10116000B1BBB0B4CFC2A3ACCACDB7C531B8F6CD10
:10117000A3B3B5CEBBA1A30D0A0000001CB500F0BF
:10118000B1FE4820FFF7FAFB4FF44070FFF738F943
:101190004FF41650FFF7E0FCFFF758FEFFF7CEF8CC
:1011A0000AA0FFF769FE00201249086001F0A4F9C7
:1011B0001148012100238022CDE900100FA112481F
:1011C00000F08AFF00F038FE00201CBD4672656505
:1011D00052544F53C8CECEF1CDA8D6AAB4FACCE61D
:1011E000BCC6CAFDD0C5BAC5C1BFCAB5D1E90D0AD2
:1011F000000000009481214200000020737461729D
:10120000745F7461736B0000F91800080024FFF725
:1012100097F911A201210846FFF760FA1AE014209D
:10122000B4FBF0F100FB114040B91420B4FBF0F521
:101230000A232A4601210220FFF72EFA322000F06D
:1012400037FD641C0748006808B9012000E0002051
:1012500004490860E3E700004672656552544F5345
:1012600000000000940121422DE9F04105460E46A0
:101270002648076826480068001D00F0E9FB50B9C1
:101280002348006890F82C10012088402149096803
:10129000814320480160681CD8B9D6B11E4948680E
:1012A0001B49096888601A4982680968CA60184938
:1012B0000968091D8268516015490968091D816026
:1012C000154A134909684A6111460968491C1160A9
:1012D0001AE07C190E4800684460BC4207D20C48F2
:1012E0000168091D0D48006800F0D6FB0CE00848B5
:1012F0000168091D0A48006800F0CEFB0948006833
:10130000844201D207480460BDE8F0815400002007
:101310004000002058000020480400204800002021
:10132000440000207000002010B5044600F0DAFBF5
:101330002F480068401C2E4908602E48006840B9BC
:101340002C4804600846006801280DD100F04EF9D1
:101350000AE02948006838B926480068C06AE16A8E
:10136000884201D82348046024480068401C23496F
:10137000086094F82C10012088402149096808432E
:101380001F490860E16A01EB81011E4A02EB8101FD
:101390004868A0608268E260211D826851608160B7
:1013A000E16A01EB8101174A02EB81026261E16AA5
:1013B00001EB8101134A52F82110491CE26A02EB49
:1013C0008202104B43F8221000F0CEFB0A4800685E
:1013D00068B108480068C06AE16A884207D24FF0E5
:1013E000805009490860BFF34F8FBFF36F8F10BD66
:1013F00050000020400000205C0000206C00002015
:10140000580000207801002004ED00E010B516E03F
:1014100000F068FB0C48C068C468201D00F018FB91
:101420000A480068401E0949086009480068401ED3
:101430000749086000F098FB204600F00BF80448CC
:1014400000680028E4D110BD3404002050000020C2
:101450004C00002010B50446206B00F0BBFB20467A
:1014600000F0B8FB10BD000030B54FF42053174812
:1014700000F007042CB1C01D20F00700134C041B22
:101480001B1B0246124C22600024114D6C60D018C8
:10149000083820F007000F4C206000240D4D2D6807
:1014A0006C600C4D2D682C601146441A4C60094C40
:1014B00024680C60084D4C682C60084D4C682C600A
:1014C0004FF00044064D2C6030BD00005C0400204D
:1014D0008000002088000020900000208C00002068
:1014E0009C00002000BFFFF791FF0648006801281C
:1014F000F9D94FF0805004490860BFF34F8FBFF314
:101500006F8FF0E77801002004ED00E02DE9FF5F28
:1015100081460E469246DDE90E7B109CAAF1010041
:10152000216B01EB800828F0070808F0070008B9D4
:10153000012000E0002028B940F2613222A127A05A
:10154000FFF79AFC86B1002507E0715D04F13400D5
:101550004155705D00B902E06D1C102DF5D300BF40
:1015600000214320015502E0002084F83400202FA0
:1015700001D2012000E0002028B94FF4667212A1C8
:1015800016A0FFF779FC202F00D31F27E762201D4C
:1015900000F07FFA04F1180000F07BFA2461C7F133
:1015A0002000A06164620020606484F8480049461D
:1015B0004046039A00F08EF92060BBF1000F01D085
:1015C000CBF80040BDE8FF9F4672656552544F530B
:1015D0005C7461736B732E63000000004572726F60
:1015E000723A25732C25640D0A00000010B5002402
:1015F00007E004EB84010F4A02EB810000F03CFAA3
:10160000641C202CF5D30C4800F036FA0B4800F08F
:1016100033FA0B4800F030FA0A4800F02DFA0A4875
:1016200000F02AFA0448094908600448084908609B
:1016300010BD000078010020F80300200C040020F9
:10164000200400203404002048040020440000202E
:101650004800002010B50146164800E00068036805
:101660008B42FBD30246436813448B4204D1436848
:101670004C682344436001460A464B68134404689F
:10168000A34211D10C4C03682468A34208D04B68D4
:101690000468646823444B6003681B680B6005E0C2
:1016A000054B1B680B6001E003680B60884200D0AB
:1016B000016010BD800000208800002009480068FB
:1016C000006808B9012000E0002020B14FF0FF3091
:1016D0000549086005E003480068C06800680249E1
:1016E0000860704744000020700000200B4800682C
:1016F000401C08B9012000E0002020B9CE2208A13A
:1017000011A0FFF7B9FB00BF502080F31188BFF391
:101710004F8FBFF36F8F00BF00BFFEE7A000002018
:101720004672656552544F535C706F727461626C9F
:10173000655C525644535C41524D5F434D335C707F
:101740006F72742E630000004572726F723A2573D7
:101750002C25640D0A0000002DE9F04104464FF0ED
:10176000000800F0BFFB4848006808B9FFF77CFE9E
:10177000464800682040002873D114B304F10800E3
:10178000A0421ED9083404F00700D8B104F00700C5
:10179000C0F108002044A04211D904F00700C0F1B4
:1017A0000800044404F0070008B9012000E000200C
:1017B00040B99C2236A13FA0FFF75EFB02E0002467
:1017C00000E00024002C4CD03E480068844248D8F9
:1017D0003D4E3046056801E02E462D686868A042FF
:1017E00002D228680028F7D127480068854238D0FF
:1017F000306800F10808286830606868001B10280D
:1018000013D92F1907F0070008B9012000E00020C4
:1018100020B9CF221EA127A0FFF72EFB6868001B6E
:1018200078606C603846FFF715FF264968680968DC
:10183000081A244908600846006824490968884253
:1018400003D2204800682149086010496868096887
:1018500008436860002028601D480068401C1C493F
:10186000086000F049FE08F0070008B9012000E018
:10187000002028B94FF4887205A10EA0FFF7FCFAEA
:101880004046BDE8F0810000880000209C00002058
:101890004672656552544F535C706F727461626C2E
:1018A000655C4D656D4D616E675C686561705F3448
:1018B0002E6300004572726F723A25732C25640DF9
:1018C0000A0000008C000020800000209000002012
:1018D00094000020001F4FF080730360001F21F070
:1018E00001030360001F034B0360143802602038BB
:1018F00070470000ED1600081CB5044600F0F2F831
:101900001248022100233222CDE9001010A1134811
:1019100000F0E2FB1248042100233222CDE900103E
:1019200010A1134800F0D8FB1248032100234FF404
:101930000072CDE9001010A1124800F0CDFB124852
:10194000006800F0EFF900F00FF91CBD0400002062
:101950006F6C65645F7461736B0000000D120008AA
:10196000080000206B65795F7461736B00000000F4
:101970001D1100080C00002054616B655F746173D9
:101980006B000000390A0008000000202DE9F0413A
:1019900004460F4616460CB9012000E0002028B985
:1019A00041F267221FA124A0FFF766FA00F09AF81F
:1019B00025480068443050F8240080B901212248AD
:1019C00000684830015556B13046FFF74DFC4FF0E6
:1019D00080501E490860BFF34F8FBFF36F8F00F038
:1019E000C3F800F07FF818480068443050F82450DD
:1019F0006DB137B1002114480068443040F824101C
:101A000005E0681E10490968443141F824000021AE
:101A10000D4800684830015500F0A6F82846BDE89A
:101A2000F08100004672656552544F535C746173D7
:101A30006B732E63000000004572726F723A25735B
:101A40002C25640D0A0000004000002004ED00E099
:101A500001460A69D1E901309860D1E90103586073
:101A60005068884201D18868506000200861106881
:101A7000401E10601068704700F1080141604FF08F
:101A8000FF31816000F10801C16001610021016046
:101A9000704700210161704710B502460B685C1C5D
:101AA0000CB9106907E002F1080000E040684468E2
:101AB00024689C42FAD944684C604C68A1608860F4
:101AC00041600A611468641C146010BD42684A6079
:101AD00093688B60936859609160086103685B1C30
:101AE0000360704710B500BF502080F31188BFF32A
:101AF0004F8FBFF36F8F00BF0B480068401C0A492F
:101B000008600846006801280DD108480068C0B286
:101B100008B9012000E0002028B940F2731204A1A6
:101B20000DA0FFF7A9F910BDA000002004ED00E012
:101B30004672656552544F535C706F727461626C8B
:101B4000655C525644535C41524D5F434D335C706B
:101B50006F72742E630000004572726F723A2573C3
:101B60002C25640D0A00000010B50B48006828B948
:101B70004FF4BD7209A113A0FFF77EF90648006873
:101B8000401E054908600846006820B9002080F31F
:101B9000118800BF00BF10BDA0000020467265651F
:101BA00052544F535C706F727461626C655C525634
:101BB00044535C41524D5F434D335C706F72742EE1
:101BC000630000004572726F723A25732C25640D14
:101BD0000A00000070B506463546002E3AD0083D92
:101BE0002C461D4960680968084008B1012000E0E2
:101BF000002028B94FF4927218A121A0FFF73CF9F8
:101C0000206808B9012000E0002028B940F2251220
:101C100012A11BA0FFF730F90F496068096808405E
:101C2000C0B12068B0B90C49606809688843606039
:101C300000F058F9164960680968084414490860BA
:101C40002046FFF707FD13480068401C1149086053
:101C500000F052FC70BD00009C00002046726565DB
:101C600052544F535C706F727461626C655C4D6569
:101C70006D4D616E675C686561705F342E63000056
:101C80004572726F723A25732C25640D0A000000AC
:101C90008C0000209800002000204FF0E021086117
:101CA0008861024848610720086170473F190100B8
:101CB00070B504460025ACB10F48006808B9012092
:101CC00000E0002028B940F24A520CA110A0FFF712
:101CD000D3F800F007F900212046FFF7C5FA00F01D
:101CE0000BFC05463DB94FF080500D490860BFF32D
:101CF0004F8FBFF36F8F70BD7C000020467265650B
:101D000052544F535C7461736B732E630000000078
:101D10004572726F723A25732C25640D0A0000001B
:101D200004ED00E070B50546FFF7DCFE15B92F485D
:101D3000006800E028460446201DFFF789FE78B9B8
:101D4000E06A00EB80002A4951F8200040B994F87D
:101D50002C100120884027490968814325480160EB
:101D6000A06A18B104F11800FFF772FE224800685B
:101D7000401C214908601D480068844209D1211D8A
:101D80001E48FFF7A3FE1E480068401C1C4908605F
:101D900006E01C480068401E1A490860FFF78EFCE8
:101DA000FFF7E2FE11480068844202D02046FFF7A8
:101DB00051FB15480068C0B10C480068844214D13A
:101DC0001248006808B9012000E0002028B940F25C
:101DD000DD420FA113A0FFF74FF84FF080501549D7
:101DE0000860BFF34F8FBFF36F8F70BD40000020BE
:101DF00078010020580000206C00002034040020EE
:101E00004C000020500000205C0000207C000020DE
:101E10004672656552544F535C7461736B732E63E5
:101E2000000000004572726F723A25732C25640D14
:101E30000A00000004ED00E01CB5194800210B4623
:101E40008022CDE9001017A1184800F045F904469A
:101E5000012C15D100BF502080F31188BFF34F8FA4
:101E6000BFF36F8F00BF4FF0FF30114908600120B2
:101E70001049086000201049086000F08FF80BE05E
:101E8000601C08B1012000E0002028B940F64102A2
:101E90000AA10FA0FEF7F0FF114800681CBD00006A
:101EA0007400002049444C4500000000E51400087F
:101EB000700000205C000020540000204672656520
:101EC00052544F535C7461736B732E6300000000B7
:101ED0004572726F723A25732C25640D0A0000005A
:101EE0007800002002480068401C014908607047E3
:101EF0007C00002010B51B48006818B101201A4969
:101F000008602DE000201849086018480068B0FA01
:101F100080F0C0F11F0404EB8400154951F8200043
:101F200008B1012000E0002028B940F6034211A1C9
:101F300015A0FEF7A1FF04EB84010D4A02EB81001E
:101F400041684968416000F1080142688A4202D153
:101F50004168496841604168C9680F4A116000BF23
:101F600010BD00007C00002064000020580000200C
:101F7000780100204672656552544F535C7461735A
:101F80006B732E63000000004572726F723A257306
:101F90002C25640D0A000000400000201CB53B4CBD
:101FA000204600780190FF202146087008460078FE
:101FB00000909DF8000000F0F0009DF800108842AD
:101FC00001D1012000E0002028B940F21F1230A109
:101FD00039A0FEF751FF9DF8000000F050003A498B
:101FE000087007203949086009E038480068401E39
:101FF000364908609DF800004006000E00909DF8EC
:10200000000000F080008028EFD030480068C0F168
:102010000700042801D1012000E0002028B940F287
:1020200033121BA124A0FEF727FF28480068C0F147
:102030000700042801D1012000E0002028B94FF456
:102040009E7213A11CA0FEF717FF20480068000233
:102050001E4908600846008800F4E06008600B49EB
:10206000019808701A48006840F470001849086028
:102070000846006840F070400860FFF70DFE002041
:1020800014490860FEF74EF800201CBD00E400E093
:102090004672656552544F535C706F727461626C26
:1020A000655C525644535C41524D5F434D335C7006
:1020B0006F72742E630000004572726F723A25735E
:1020C0002C25640D0A000000A4000020A8000020B8
:1020D00020ED00E0A00000202DE9FF4F85B08046F4
:1020E00089461746DDE912ABB800FFF735FB064617
:1020F00056B14C20FFF730FB04460CB1266304E0D8
:102100003046FFF767FD00E000247CB10020CDE9F8
:1021100000ABCDE902403A4649464046089BFFF7EE
:10212000F5F92046FFF700F9012501E04FF0FF35F2
:10213000284609B0BDE8F08F2DE9F05F07460D464F
:1021400016469846DDF828A04FF0010B0DB9012086
:1021500000E0002028B941F209325CA160A0FEF73E
:102160008BFE2FB941F20A3258A15DA0FEF784FE22
:102170003C46FFF7B7FCBAF1000F05D004F144006C
:1021800050F82500CAF8000004F1480010F8059046
:1021900002214155B8F1050F29D2DFE808F02703E5
:1021A0000D171C0004F1440050F82500304304F1E1
:1021B000440141F8250028E004F1440050F82500CE
:1021C000401C04F1440141F825001EE004F14400E4
:1021D00040F8256019E0B9F1020F04D004F1440081
:1021E00040F8256001E04FF0000B0EE00DE04048A4
:1021F000006808B9012000E0002028B941F23F3210
:1022000032A137A0FEF738FE00BF00BFB9F1010FC1
:1022100056D16069D4E902128A60D4E902214A6089
:10222000211D42688A4201D1E16841600022626159
:102230000168491E016094F82C10012088402D4946
:10224000096808432B490860E16A01EB81012A4AC9
:1022500002EB81014868A0608268E260211D82680B
:1022600051608160E16A01EB8101234A02EB810246
:102270006261E16A01EB81011F4A52F82110491C99
:10228000E26A02EB82021C4B43F82210A06A08B9F2
:10229000012000E0002028B941F24E320BA110A02D
:1022A000FEF7EAFD1549E06A0968C96A884207D95C
:1022B0004FF0805012490860BFF34F8FBFF36F8F0C
:1022C000FFF752FC5846BDE8F09F00004672656576
:1022D00052544F535C7461736B732E6300000000A3
:1022E0004572726F723A25732C25640D0A00000046
:1022F00054000020580000207801002040000020F9
:1023000004ED00E00549096809B9012005E0044928
:10231000096809B9022000E0002070475C00002035
:102320007C0000202DE9F0414FF000085E48006875
:1023300000287DD15D480068451C5C480560EDB90A
:102340005B480068006808B9012000E0002028B957
:1023500040F6C82257A15CA0FEF78EFD54480768DE
:102360005D480068524908605B4807605B48006848
:10237000401C5A490860FFF7A1F900BF584800689F
:10238000854277D300BF4A480068006808B9012039
:1023900000E0002020B14FF0FF305149086068E0B4
:1023A00043480068C068C4686668B54202D24C48B9
:1023B00006605EE06069D4E902128A60D4E9022115
:1023C0004A60211D42688A4201D1E16841600022D1
:1023D00062610168491E0160A06A98B1A06AD4E9EF
:1023E00007128A60D4E907214A6004F118014268A3
:1023F0008A4201D1216A41600022A2620168491E1D
:10240000016000BF94F82C1001208840354909680C
:10241000084334490860E16A01EB8101324A02EB6A
:1024200081014868A0608268E260211D826800E046
:1024300032E051608160E16A01EB81012A4A02EBDE
:1024400081026261E16A01EB8101274A52F82110A1
:10245000491CE26A02EB8202234B43F82210234913
:10246000E06A0968C96A88428DD34FF001088AE79B
:1024700000E000BF1D480068C06A00EB80001A49F8
:1024800051F82000012801D94FF0010818480068D0
:1024900008B14FF0010804E016480068401C1549D7
:1024A00008604046BDE8F0817C0000205400002018
:1024B000440000204672656552544F535C7461734A
:1024C0006B732E63000000004572726F723A2573C1
:1024D0002C25640D0A000000480000206800002040
:1024E00070000020580000207801002040000020EB
:1024F000640000206000002070B5002400265048D1
:10250000006828B940F6B4024EA153A0FEF7B4FC0F
:10251000FFF7E8FA4A480068401E49490860084643
:10252000006800287ED15048006800287AD05BE01F
:102530004E48C068C468A06AD4E907128A60D4E92A
:1025400007214A6004F1180142688A4201D1216AD8
:1025500041600022A2620168491E01606069D4E9FD
:1025600002128A60D4E902214A60211D42688A422F
:1025700001D1E1684160002262610168491E016089
:1025800094F82C10012088403949096808433849DB
:102590000860E16A01EB8101364A02EB810148687B
:1025A000A0608268E260211D826851608160E16AFA
:1025B00001EB81012F4A02EB81026261E16A01EBCA
:1025C00081012C4A52F82110491CE26A02EB820276
:1025D000284B43F822102849E06A0968C96A8842F2
:1025E00002D30120254908602048006808B901206D
:1025F00000E0002000289BD00CB1FFF75FF82048D6
:10260000056865B100BFFFF78DFE10B101201B49C1
:1026100008606D1E002DF6D100201949086017488A
:10262000006800E008E038B101263007154908606D
:10263000BFF34F8FBFF36F8FFFF796FA304670BD31
:102640007C0000204672656552544F535C74617380
:102650006B732E63000000004572726F723A25732F
:102660002C25640D0A0000005000002020040020EA
:102670005800002078010020400000206400002065
:102680006000002004ED00E00000000000000000F9
:102690000000000000000000000000F80000000042
:1026A000000000333000000000100C06100C060083
:1026B000000000000000000040C07840C0784000EA
:1026C000043F04043F040400007088FC083000004C
:1026D000001820FF211E0000F008F000E0180000A4
:1026E00000211C031E211E0000F00888700000005D
:1026F0001E2123241927211010160E0000000000AF
:102700000000000000000000000000E018040200CB
:10271000000000071820400000020418E00000003C
:102720000040201807000000404080F0804040003A
:102730000202010F01020200000000F00000000090
:102740000101011F01010100000000000000000064
:1027500080B07000000000000000000000000000D9
:102760000001010101010101000000000000000062
:1027700000303000000000000000000080601804FD
:10278000006018060100000000E010080810E000DA
:10279000000F102020100F00001010F800000000A3
:1027A0000020203F202000000070080808887000EA
:1027B000003028242221300000300888884830006A
:1027C0000018202020110E000000C02010F800008A
:1027D00000070424243F240000F808888808080023
:1027E0000019212020110E0000E010888818000038
:1027F000000F112020110E0000380808C83808000A
:102800000000003F00000000007088080888700089
:10281000001C222121221C0000E010080810E0000A
:102820000000312222110F00000000C0C000000093
:1028300000000030300000000000008000000000B8
:1028400000008060000000000000804020100800B0
:102850000001020408102000404040404040400079
:102860000404040404040400000810204080000054
:102870000020100804020100007048080808F00059
:102880000000003036010000C030C828E810E00029
:102890000718272423140B000000C038E0000000B4
:1028A000203C23020227382008F88888887000001E
:1028B000203F202020110E00C030080808083800F2
:1028C000071820202010080008F808080810E00069
:1028D000203F202020100F0008F88888E80810000A
:1028E000203F20202320180008F88888E8081000DE
:1028F000203F200003000000C03008080838000016
:1029000007182020221E020008F808000008F80816
:10291000203F210101213F20000808F8080800009D
:102920000020203F2020000000000808F8080800D0
:10293000C08080807F00000008F888C02818080048
:10294000203F20012638200008F808000000000081
:10295000203F20202020300008F8F800F8F8080078
:10296000203F003F003F200008F830C00008F80872
:10297000203F200007183F00E01008080810E00082
:102980000F10202020100F0008F808080808F00099
:10299000203F210101010000E01008080810E000BC
:1029A0000F18242438504F0008F888888888700051
:1029B000203F2000030C30200070880808083800F1
:1029C0000038202121221C00180808F808081800E7
:1029D0000000203F2000000008F808000008F80868
:1029E000001F202020201F000878880000C8380819
:1029F000000007380E010000F80800F80008F80091
:102A0000033C0700073C030008186880806818082A
:102A100020302C03032C30200838C800C8380800A8
:102A20000000203F2000000010080808C8380800F7
:102A30002038262120201800000000FE020202009B
:102A40000000007F40404000000C30C0000000004B
:102A5000000000010638C00000020202FE00000073
:102A6000004040407F000000000004020202040019
:102A70000000000000000000000000000000000056
:102A8000808080808080808000020204000000003E
:102A90000000000000000000000080808080000036
:102AA0000019242222223F2008F800808000000024
:102AB000003F112020110E000000008080800000E7
:102AC000000E112020201100000000808088F800F6
:102AD000000E112020103F20000080808080000028
:102AE000001F222222221300008080F0888888188C
:102AF0000020203F20200000000080808080800097
:102B0000006B94949493600008F80080808000002B
:102B1000203F210000203F20008098980000000006
:102B20000020203F20200000000000809898000036
:102B300000C08080807F000008F800008080800056
:102B4000203F24022D302000000808F8000000007B
:102B50000020203F20200000808080808080800036
:102B6000203F20003F20003F8080008080800000C8
:102B7000203F210000203F20000080808080000056
:102B8000001F202020201F00808000808000000087
:102B900080FFA12020110E000000008080808000B6
:102BA000000E112020A0FF808080800080808000A7
:102BB00020203F21200001000000808080808000D4
:102BC0000033242424241900008080E08080000049
:102BD0000000001F20200000808000000080800096
:102BE000001F202020103F208080800000808080F7
:102BF00000010E3008060100808000800080808087
:102C00000F300C030C300F000080800080808000AB
:102C10000020312E0E3120008080800000808080D6
:102C200080818E7018060100008080808080800086
:102C30000021302C2221300000000000807C0202A4
:102C400000000000003F404000000000FF000000C6
:102C500000000000FF0000000002027C8000000075
:102C60000040403F00000000000601010202040491
:102C70000000000000000000982C00080000002068
:102C8000B0000000980E0008482D0008B000002099
:102C9000B02F0000A80E0008000000000000000097
:102CA000000000000000000000000000010203041A
:102CB00001020304060708090204060800A24A04E8
:102CC00000000000000000000102030406070809DC
:102CD00001000000000000000000000000000000F3
:102CE00000000000000000000000000000000000E4
:102CF00000000000000000000000000000000000D4
:102D000000000000000000000000000000000000C3
:102D10001F00000000000000000000000000000094
:102D200000000000000000000000000000000000A3
:102D30000000000000000000AAAAAAAA00000000EB
:082D400000000000000000008B
:04000005080000ED02
:00000001FF
