:020000040800F2
:10000000F830002099010008B10300085B030008E4
:10001000AD03000831020008370E000800000000A0
:1000200000000000000000000000000001010008C6
:10003000350200080000000045010008410A0008E0
:10004000B3010008B3010008B3010008B3010008C0
:10005000B3010008B3010008B3010008B3010008B0
:10006000B3010008B3010008B3010008B3010008A0
:10007000B3010008B3010008B3010008B301000890
:10008000B3010008B3010008B3010008B301000880
:10009000B3010008B3010008B3010008B301000870
:1000A000B3010008B3010008B3010008B301000860
:1000B000B3010008B3010008B3010008B301000850
:1000C000B3010008B3010008B3010008B301000840
:1000D000B3010008310B0008B3010008B3010008A8
:1000E000B3010008B3010008B3010008DFF80CD029
:1000F00000F08CF800480047C9110008F8300020D3
:10010000224B19680868B0E8F00F80F30988BFF344
:100110006F8F4FF0000080F311884EF00D0E704786
:100120000000000006480068006880F3088862B696
:1001300061B6BFF34F8FBFF36F8F00DF00BF00BF0B
:1001400008ED00E0EFF30980BFF36F8F0F4B1A68E3
:1001500020E9F00F106008B54FF0500080F31188CF
:10016000BFF34F8FBFF36F8F02F09CFA4FF0000088
:1001700080F31188BDE8084019680868B0E8F00FFE
:1001800080F30988BFF36F8F704700BF4C000020D9
:10019000EFF3058070470000064880470648004797
:1001A000FEE7FEE7FEE7FEE7FEE7FEE7FEE7FEE727
:1001B000FEE7FEE7D10A0008ED00000840EA01036F
:1001C0009B0703D009E008C9121F08C0042AFAD20D
:1001D00003E011F8013B00F8013B521EF9D27047D1
:1001E00030B50B46014600202022012409E021FA07
:1001F00002F59D4205D303FA02F5491B04FA02F504
:100200002844151EA2F10102F1DC30BD064C074D59
:1002100006E0E06840F0010394E8070098471034D6
:10022000AC42F6D3FFF766FF243B0008443B0008CE
:1002300000BFFEE770472DE9F04102460025002689
:10024000002000230024002791F803C00CF00F05C4
:1002500091F803C00CF0100CBCF1000F03D091F822
:1002600002C04CEA050591F800C0BCF1000F31D086
:10027000146800202BE04FF0010C0CFA00F3B1F8E9
:1002800000C00CEA03069E4220D183004FF00F0C01
:100290000CFA03F7BC4305FA03FC4CEA040491F89A
:1002A00003C0BCF1280F06D14FF0010C0CFA00FC82
:1002B000C2F814C00AE091F803C0BCF1480F05D1A0
:1002C0004FF0010C0CFA00FCC2F810C0401C0828CA
:1002D000D1D31460B1F800C0BCF1FF0F34DD546815
:1002E00000202EE000F1080C4FF0010808FA0CF392
:1002F000B1F800C00CEA03069E4221D183004FF002
:100300000F0C0CFA03F7BC4305FA03FC4CEA040497
:1003100091F803C0BCF1280F05D100F1080C08FAD0
:100320000CF8C2F8148091F803C0BCF1480F07D153
:1003300000F1080C4FF0010808FA0CF8C2F8108020
:10034000401C0828CED35460BDE8F081016170479D
:100350000AB1016100E04161704700BFFEE70000A3
:1003600008B501210C2000F0FFF92020ADF80000B5
:1003700010208DF8030003208DF80200694609481B
:10038000FFF759FF20210748FFF7E0FF2020ADF8D5
:10039000000069460448FFF74EFF20210248FFF79E
:1003A000D5FF08BD000C01400008014000BFFEE77A
:1003B0007047000070B5002100230F22C47804B3F9
:1003C000154C246804F4E064C4F5E064210AC1F12A
:1003D0000403CA40447804FA03F1847814402143AA
:1003E00009010E4C0678A155047804F01F0501247C
:1003F000AC4005786D11AD0005F1E025C5F8004170
:1004000009E0047804F01F050124AC40044D06788F
:10041000761145F8264070BD0CED00E000E400E0E8
:1004200080E100E002490143024A11607047000088
:100430000000FA050CED00E070B500240EE000218C
:10044000204600F0F0F8002504E0002000F07CF9E0
:10045000681CC5B2802DF8DB601CC4B2082CEEDB32
:1004600070BD000008B50121082000F07DF91420BE
:100470008DF8030003208DF802004FF48070ADF872
:10048000000069460A48FFF7D6FE4FF40070ADF849
:10049000000069460648FFF7CEFE0122110204481B
:1004A000FFF756FF012251020148FFF751FF08BD37
:1004B000000C014070B50546002415E08020204165
:1004C00000EA05024FF400710E48FFF741FF0122D8
:1004D00011020C48FFF73CFF00224FF480710948DD
:1004E000FFF736FF601CC4B2082CE7DB01221102C3
:1004F0000448FFF72DFF00224FF480710148FFF7F9
:1005000027FF70BD000C014010B5012251020A48BE
:10051000FFF71EFF012211020748FFF719FF002213
:100520004FF400710448FFF713FF00224FF480716D
:100530000148FFF70DFF10BD000C014010B500226F
:100540004FF400710648FFF703FF0122110204482F
:10055000FFF7FEFE012251020148FFF7F9FE10BD30
:10056000000C014070B5002406E0002500E06D1C81
:10057000B5F57A7FFBD3641CB4F57A7FF5D3FFF72A
:1005800071FFAE2000F0D0F8D52000F0CDF880202B
:1005900000F0CAF8A82000F0C7F83F2000F0C4F827
:1005A000D32000F0C1F8002000F0BEF8402000F099
:1005B000BBF8A12000F0B8F8C82000F0B5F8DA20A8
:1005C00000F0B2F8122000F0AFF8812000F0ACF893
:1005D000CF2000F0A9F8D92000F0A6F8F12000F013
:1005E000A3F8DB2000F0A0F8302000F09DF8A42054
:1005F00000F09AF8A62000F097F88D2000F094F80B
:10060000142000F091F8AF2000F08EF8FFF714FFEF
:1006100070BD10B50246012000E050430B1EA1F151
:100620000101FAD110BD70B505460C4645F0B00089
:1006300000F07AF8102141EA141000F075F804F087
:100640000F0000F071F870BD2DE9F04105460E462F
:100650001746721ED206110E6A1E5206100EFFF7C2
:10066000E2FF002409E0A7F12001134A02EB011187
:10067000085D00F069F8601CC4B2082CF3DB721E40
:10068000D206110E6A1E012303EB4202D0B2FFF71D
:10069000CAFF00240BE0A7F12001074A02EB011278
:1006A00004F10801505C00F04FF8601CC4B2082C43
:1006B000F1DBBDE8F0810000343500082DE9F0479A
:1006C00080460E4617461D46002415E0281B411E95
:1006D0000A20FFF79EFFB7FBF0F00A21B0FBF1F212
:1006E00001FB120000F130093019C1B24A46404600
:1006F000FFF7AAFF601CC4B2AC42E7DBBDE8F0879D
:100700002DE9F04107460E461546002407E02A5D14
:100710003019C1B23846FFF797FF601CC4B2285D9C
:100720000028F4D1BDE8F08110B50446FFF7ECFED7
:100730007820FFF7BFFE0020FFF7BCFE2046FFF742
:10074000B9FEFFF7FBFE10BD10B50446FFF7DCFE57
:100750007820FFF7AFFE4020FFF7ACFE2046FFF702
:10076000A9FEFFF7EBFE10BD29B1064A92690243CC
:10077000044B9A6104E0034A92698243014B9A61F7
:10078000704700000010024030B500210022002414
:1007900000232D4D6D6805F00C0121B1042905D011
:1007A000082923D105E0294D056022E0274D056089
:1007B0001FE0254D6D6805F47012234D6D6805F43A
:1007C0008034022505EB92421CB9214D554305604A
:1007D0000BE01D4D6D6805F400351DB11C4D5543F2
:1007E000056002E0194D5543056002E0174D0560B4
:1007F00000BF00BF144D6D6805F0F0010909154DEB
:100800006B5C0568DD4045600F4D6D6805F4E06187
:10081000090A104D6B5C4568DD4085600A4D6D68C6
:1008200005F46051C90A0B4D6B5C4568DD40C5603D
:10083000054D6D6805F44041890B074D6B5CC5683B
:10084000B5FBF3F5056130BD0010024000127A00DF
:1008500000093D001C0000202C00002010B500F015
:1008600001F810BD0CB500200190009033480068DD
:1008700040F480303149086000BF3048006800F41F
:10088000003000900198401C0190009818B9019820
:10089000B0F5A06FF1D12948006800F4003010B124
:1008A0000120009001E0002000900098012843D131
:1008B0002348006840F0100021490860084600689D
:1008C00020F0030008600846006840F0020008605D
:1008D0001A48406819494860084640684860084618
:1008E000406840F4806048600846406820F47C100E
:1008F00048600846406840F4E810486008460068D0
:1009000040F08070086000BF0C48006800F0007084
:100910000028F9D00948406820F0030007494860E2
:100920000846406840F00200486000BF0348406845
:1009300000F00C000828F9D10CBD000000100240A6
:100940000020024070B505460C480068401C0B4969
:10095000086002F0F7FA04460948006808B9012067
:1009600000E00020064908600448016805A000F086
:10097000B3FA21460AA000F0AFFA70BD14000020BF
:1009800094812142B6A8CAB1C6F731B5C4BBD8B567
:10099000F7BAAFCAFDD6B4D0D02564B4CE0D0A00E4
:1009A000B5CEB4F0B6A8CAB1C6F7CAFDD6B53D25D6
:1009B000640A0D0A0000000070B50546084800688A
:1009C000401C0749086002F0BDFA0446044801686B
:1009D00004A000F081FA21460AA000F07DFA70BD63
:1009E00018000020B6A8CAB1C6F732B5C4BBD8B546
:1009F000F7BAAFCAFDD6B4D0D020256420B4CE0D4E
:100A00000A000000B5CEB4F0B6A8CAB1C6F7CAFD58
:100A1000D6B53D25640D0A00042808D14FF0E02129
:100A2000096941F004014FF0E022116107E04FF045
:100A3000E021096921F004014FF0E02211617047C3
:100A400010B500BF502080F31188BFF34F8FBFF364
:100A50006F8F00BF02F07CFA18B14FF0805004494C
:100A6000086000BF002080F3118800BF10BD0000A7
:100A700004ED00E070B505460420FFF7CDFF1048F7
:100A800000681049B0FBF1F00F4908700C4800688D
:100A90000C49B0FBF1F44FF47A70444301200B4948
:100AA00008804FF0E020006940F002004FF0E021A4
:100AB000086108464461006940F00100086170BDAA
:100AC0003000002040420F00460000204800002077
:100AD00010B51348006840F001001149086008464D
:100AE0004068104908400E494860084600680E49B1
:100AF00008400B4908600846006820F48020086020
:100B00000846406820F4FE0048604FF41F008860EB
:100B1000FFF7A4FE4FF000600449086010BD00001C
:100B2000001002400000FFF8FFFFF6FE08ED00E0B5
:100B300010B540F225511D4800F0B8F810B31B481D
:100B400000F070F9C4B21A48008800F40040C8B937
:100B50001748008800F4804060B10A2C03D00020C0
:100B60001349088020E01248008840F400401049F2
:100B7000088019E00D2C06D10D48008840F4804013
:100B80000B49088010E00A480088C0F30D000949AD
:100B90000C5407480088401C054908800846008816
:100BA000C72801DD0020088010BD0000003801408A
:100BB0004A000020D000002010B586B00446012174
:100BC0000420FFF7D1FD01218803FFF7CDFD4FF48D
:100BD0000070ADF8140003208DF8160018208DF871
:100BE000170005A91E48FFF726FB4FF48060ADF8FB
:100BF000140004208DF8170005A91948FFF71BFB06
:100C000001940020ADF80800ADF80A00ADF80C0022
:100C1000ADF810000C20ADF80E0001A9114800F04D
:100C200095F801210F4800F028F840210D4800F008
:100C30001BF8012240F225510A4800F061F82520F6
:100C40008DF8000003208DF801008DF802000120CE
:100C50008DF803006846FFF7ADFB06B010BD00003D
:100C6000000801400038014001F40072B2F5007F35
:100C700000D100BFCA430280704721B1828942F48B
:100C80000052828104E082894DF6FF731A4082810E
:100C9000704702460020B1F5007F00D100BF1388E5
:100CA0000B400BB1012000E00020704770B50246F8
:100CB000002400230025002040F66A16B14200D12E
:100CC00000BFC1F3421501F01F03012606FA03F32A
:100CD000012D02D19689334006E0022D02D1168AF9
:100CE000334001E0968A33400C12012606FA04F4E0
:100CF0001688344013B10CB1012000E0002070BD13
:100D0000F0B50346002400260025002040F66A17AF
:100D1000B94200D100BF1846C1F3421401F01F06CA
:100D2000012707FA06F5012C01D10C3004E0022C52
:100D300001D1103000E014301AB107682F4307606A
:100D400002E00768AF430760F0BD00002DE9F047FF
:100D500086B005460E460024A24600BFA1460027E5
:100D6000B08900B100BF2F462C8A4CF6FF700440BA
:100D7000F08804432C82AC894EF6F3100440B0880E
:100D800031890843718908430443AC81AC8A4FF62A
:100D9000FF400440B0890443AC8201A8FFF7F4FC93
:100DA0001F48874202D1DDF810A001E0DDF80CA059
:100DB000A88900F4004040B10AEBCA0000EB0A1019
:100DC00031684900B0FBF1F807E00AEBCA0000EB1C
:100DD0000A1031688900B0FBF1F86420B8FBF0F02C
:100DE00004012009642101FB1089A88900F4004056
:100DF00040B1322000EBC900B0FBF1F000F0070079
:100E0000044308E0322000EB09106421B0FBF1F04C
:100E100000F00F0004432C8106B0BDE8F08700000D
:100E20000038014001468888C0F308007047C1F3CC
:100E300008028280704700BFFEE7000010B504463C
:100E4000012C01D1174908701648007801281AD1E1
:100E500015480068012804D01348001D00680128C7
:100E600011D10A2000F034F900200E4908700E4814
:100E70000068012800D110BD0B48001D0068012842
:100E80000DD10220F7E708480068012807D006487E
:100E9000001D0068012802D00120024908700020CE
:100EA000E9E70000440000202881214208B5012123
:100EB0000820FFF759FC4FF44060ADF800002820EF
:100EC0008DF8030003208DF8020069460148FFF702
:100ED000B2F908BD000C01400FB4054B10B503A9D1
:100EE000044A029800F018F810BC5DF814FB0000EA
:100EF00059110008CC00002002E008C8121F08C1E8
:100F0000002AFAD170477047002001E001C1121F8A
:100F1000002AFBD1704700002DE9FF4F8BB09A46A5
:100F20000F460546002606E025280BD052460D99AF
:100F300090476D1C761C28780028F5D10FB03046FC
:100F4000BDE8F08F0024A0460122604900E0044380
:100F500015F8013F203B02FA03F00842F7D1287848
:100F60002E2817D115F8010F44F004042A280ED0BA
:100F70006FF02F022878A0F1300109290AD808EB78
:100F8000880102EB410100EB01086D1CF2E757F804
:100F9000048B6D1C287869283ED006DC0028CDD053
:100FA00063280BD0642804D136E0732810D075284C
:100FB0004BD052460D999047761C85E017F8040BEC
:100FC0008DF8000000208DF80100E946012003E0C3
:100FD00057F8049B4FF0FF3061074FF0000401D435
:100FE0000AE0641C44450DDA8442FADB19F8041067
:100FF0000029F6D106E0641C8442FCDB19F80410D9
:101000000029F8D1264404E019F8010B52460D9945
:101010009047641EF8D257E001CF4FF00A0B00282A
:1010200002DA40422D2102E0210504D52B218DF862
:101030002410012103E0E10705D02021F7E70DF19D
:10104000200908910CE00021F9E701CF4FF00A0BCD
:10105000F9E75946FFF7C4F801F1300209F8012D0C
:101060000028F6D1ADEB090000F1200B600701D498
:101070004FF00108D84502DDA8EB0B0000E000208E
:101080008046002406E009A85246005D0D9990476D
:10109000641C761C08988442F5DB04E0302052463C
:1010A0000D999047761CB8F10001A8F10108F5DC14
:1010B00005E019F8010B52460D999047761CBBF1DB
:1010C0000001ABF1010BF4DC6D1C34E709280100D1
:1010D00070B5044601F026FF012810D00B480088A7
:1010E000844206D309480088B4FBF0F5284601F095
:1010F00039F906480088B4FBF0F100FB11444FF4C5
:101100007A7104FB01F000F003F870BD4800002084
:1011100070B5034600224FF0E02675690D4E367813
:1011200003FB06F44FF0E026B16910E04FF0E02633
:10113000B06988420BD0884202D20E1A324402E0D3
:101140002E1A0E4432440146A24200D300E0EDE7DD
:1011500000BF70BD4600002070B504460D46E1B2E8
:101160000548FFF764FE00BF80210348FFF791FDAB
:101170000028F9D0204670BD00380140002411E05D
:101180000020FFF75BFE0446012C03D106A0FFF709
:10119000A3FE04E0022C02D107A0FFF79DFE14205D
:1011A00001F0E0F8ECE700004B4559305F50524544
:1011B000535345440D0A00004B4559315F50524589
:1011C000535345440D0A00001CB501F063FA482052
:1011D000FFF750FC4FF44070FFF724F94FF416501E
:1011E000FFF7EAFCFFF762FEFFF7BAF809A0FFF786
:1011F00073FE02F035F80E48012100238022CDE96C
:1012000000100CA10E4801F05DFE01F0E9F900208C
:101210001CBD00004672656552544F53C8EDBCFEBC
:10122000B6A8CAB1C6F7CAB5D1E90D0A00000000D8
:101230000000002073746172745F7461736B00004E
:101240009D1E00080024FFF78DF911A20121084618
:10125000FFF756FA1AE01420B4FBF0F100FB11403E
:1012600040B91420B4FBF0F50A232A4601210220DC
:10127000FFF724FA322001F075F8641C0748006873
:1012800008B9012000E0002004490860E3E70000FD
:101290004672656552544F5300000000940121428C
:1012A0002DE9F04105460E462648076826480068A5
:1012B000001D00F075FE50B92348006890F82C100E
:1012C0000120884021490968814320480160681C49
:1012D000D8B9D6B11E4948681B49096888601A49BF
:1012E00082680968CA6018490968091D82685160E6
:1012F00015490968091D8160154A134909684A6141
:1013000011460968491C11601AE07C190E480068F2
:101310004460BC4207D20C480168091D0D480068B2
:1013200000F062FE0CE008480168091D0A480068E8
:1013300000F05AFE09480068844201D20748046060
:10134000BDE8F081600000204C0000206400002017
:10135000B804002054000020500000207C00002031
:1013600010B5044600F066FE2F480068401C2E4968
:1013700008602E48006840B92C48046008460068A0
:1013800001280DD100F02CFA0AE02948006838B98C
:1013900026480068C06AE16A884201D82348046090
:1013A00024480068401C2349086094F82C10012050
:1013B00088402149096808431F490860E16A01EB38
:1013C00081011E4A02EB81014868A0608268E260E8
:1013D000211D826851608160E16A01EB8101174A39
:1013E00002EB81026261E16A01EB8101134A52F86A
:1013F0002110491CE26A02EB8202104B43F82210D2
:1014000000F05AFE0A48006868B108480068C06ADF
:10141000E16A884207D24FF0805009490860BFF363
:101420004F8FBFF36F8F10BD5C0000204C00002079
:10143000680000207800002064000020E8010020FF
:1014400004ED00E010B500F0F5FD10480068D0B9DB
:101450000F4800F0B9FD0F4800F0B6FD0C480E49EA
:1014600008600C480D49086000220C210A2001F098
:101470000BFA064908600846006820B108A1034835
:10148000006800F00BFF00F017FE10BD9400002074
:10149000CC040020E00400208C00002090000020FC
:1014A000546D72510000000010B516E000F0C2FD4E
:1014B0000C48C068C468201D00F072FD0A4800682E
:1014C000401E0949086009480068401E0749086035
:1014D00000F0F2FD204600F055F8044800680028AE
:1014E000E4D110BDA40400205C00002058000020BE
:1014F00070B504460D46206C70B1216CE068014463
:10150000E160D4E90210884201D32168E1602846F5
:10151000226CE168FEF752FE70BD2DE9F0410446F1
:101520000F4615464FF00008A66B206C28B37DB916
:101530003946226C6068FEF741FE216C6068084401
:101540006060D4E90101884217D32068606014E02C
:101550003946226CE068FEF731FE216CE068411AE2
:10156000E1602168E068884203D2216CA068411ADA
:10157000E160022D01D106B1761E701CA0634046C9
:10158000BDE8F08110B50446206B00F0CBFD20468D
:1015900000F0C8FD10BD00000146084A126812683C
:1015A0000AB9012200E000220A600A6822B9034A4F
:1015B0001268D268106800E0002070478C0000209C
:1015C00030B54FF42053174800F007042CB1C01D6C
:1015D00020F00700134C041B1B1B0246124C226018
:1015E0000024114D6C60D018083820F007000F4C13
:1015F000206000240D4D2D686C600C4D2D682C6012
:101600001146441A4C60094C24680C60084D4C6823
:101610002C60084D4C682C604FF00044064D2C6047
:1016200030BD0000F4040020A0000020A80000202D
:10163000B0000020AC000020BC00002000BFFFF77D
:1016400033FF064800680128F9D94FF0805004495B
:101650000860BFF34F8FBFF36F8FF0E7E801002002
:1016600004ED00E02DE9F04106460D461746984688
:10167000069C0DB9246000E02760E6632564012123
:10168000204601F041F9BDE8F08100002DE9FF5F3F
:1016900081460E469246DDE90E7B109CAAF10100C0
:1016A000216B01EB800828F0070808F0070008B953
:1016B000012000E0002028B940F2613222A127A0D9
:1016C000FFF70AFC86B1002507E0715D04F13400E4
:1016D0004155705D00B902E06D1C102DF5D300BFBF
:1016E00000214320015502E0002084F83400202F1F
:1016F00001D2012000E0002028B94FF4667212A147
:1017000016A0FFF7E9FB202F00D31F27E762201D5B
:1017100000F067FC04F1180000F063FC2461C7F1DD
:101720002000A06164620020606484F8480049469B
:101730004046039A00F0A0FB2060BBF1000F01D0EF
:10174000CBF80040BDE8FF9F4672656552544F5389
:101750005C7461736B732E63000000004572726FDE
:10176000723A25732C25640D0A0000002DE9F0471C
:1017700006460D4617469846DDE908940DB101204E
:1017800000E0002028B940F26B120CA110A0FFF776
:10179000A3FBFFF757FE2660A561C4F81C80C4F8C0
:1017A0002090201D00F01DFC2FB194F8240040F083
:1017B000040084F82400BDE8F087000046726565E7
:1017C00052544F535C74696D6572732E6300000050
:1017D0004572726F723A25732C25640D0A00000061
:1017E00010B5002407E004EB84010F4A02EB8100EE
:1017F00000F0EAFB641C202CF5D30C4800F0E4FB5D
:101800000B4800F0E1FB0B4800F0DEFB0A4800F05B
:10181000DBFB0A4800F0D8FB04480949086004488B
:101820000849086010BD0000E8010020680400209D
:101830007C04002090040020A4040020B8040020B0
:10184000500000205400002010B50146164800E06A
:10185000006803688B42FBD30246436813448B4203
:1018600004D143684C682344436001460A464B68F0
:1018700013440468A34211D10C4C03682468A342AA
:1018800008D04B680468646823444B6003681B6895
:101890000B6005E0054B1B680B6001E003680B6003
:1018A000884200D0016010BDA0000020A8000020E8
:1018B0002DE9F04104460D4616461F464FF000083C
:1018C00065602461B5420CD8F01BA169884202D33F
:1018D0004FF0010811E0211D0948006800F084FB69
:1018E0000BE0BE4204D2BD4202D34FF0010804E037
:1018F000211D0448006800F077FB4046BDE8F081F8
:10190000900000208C00002070B5054600F092FB8E
:10191000A86B08B9012400E0002400F0CDFB2046AC
:1019200070BD70B5054600F085FBA86BE96B884279
:1019300001D1012400E0002400F0BEFB204670BD70
:1019400070B505460E460E480068C068C468201D84
:1019500000F026FB94F8240000F0040028B1324681
:101960002946204600F0E4F805E094F8240000F051
:10197000FE0084F824002046216A884770BD0000DC
:101980008C0000207FB57AE00198002877DB039C6B
:10199000606908B9012000E0002010B9201D00F0A6
:1019A000FFFA684600F0F0F8054601980A2864D26C
:1019B000DFE800F06305072E365306082F3700BF17
:1019C00000BF00BF94F8240040F0010084F8240018
:1019D0000298A269811803462A462046FFF768FF4D
:1019E000A8B194F8240000F0040038B10298A2696C
:1019F00081182A46204600F09BF805E094F8240060
:101A000000F0FE0084F824002046216A884735E073
:101A100000BF94F8240000F0FE0084F824002DE0BC
:101A200000BF94F8240040F0010084F824000298DC
:101A3000A061A06908B1012000E0002028B940F2AF
:101A4000593214A118A0FFF747FAA06941192B4693
:101A50002A462046FFF72CFF10E094F8240000F0FF
:101A6000020018B9204600F05DFB05E094F8240060
:101A700000F0FE0084F8240000E000BF00BF002258
:101A800001A90D48006801F015F900287FF47CAF2A
:101A90007FBD00004672656552544F535C74696D9A
:101AA0006572732E630000004572726F723A25737F
:101AB0002C25640D0A00000094000020F8B50546AE
:101AC0000C4600F0E7FD684600F05EF80646009818
:101AD00020BB44B9B54206D801F0C2FB31462846C6
:101AE000FFF72EFF1CE03CB10E480068006808B903
:101AF000012000E000200446A91B22460A48006895
:101B000000F00AFC01F0ACFB50B94FF080500749DF
:101B10000860BFF34F8FBFF36F8F01E001F0A0FBB0
:101B2000F8BD0000900000209400002004ED00E0CB
:101B300070B504460D46164604E0A06905442046EB
:101B4000216A8847A06941192B4632462046FFF793
:101B5000AFFE0028F1D170BD09480068006808B9DF
:101B6000012000E0002020B14FF0FF30054908605F
:101B700005E003480068C0680068024908607047D3
:101B8000500000207C00002070B5044601F0DAF916
:101B9000054607480068854204D200F00BF8012092
:101BA000206001E00020206001480560284670BDEB
:101BB0009C00002070B508E00D480068C06804680B
:101BC0004FF0FF312046FFF7BBFE09480068006870
:101BD00008B9012000E000200028EDD00448056885
:101BE00004480068024908600248056070BD0000B2
:101BF0008C000020900000200B480068401C08B9B1
:101C0000012000E0002020B9CE2208A111A0FFF79A
:101C100063F900BF502080F31188BFF34F8FBFF3EB
:101C20006F8F00BF00BFFEE7C000002046726565F1
:101C300052544F535C706F727461626C655C5256A3
:101C400044535C41524D5F434D335C706F72742E50
:101C5000630000004572726F723A25732C25640D83
:101C60000A00000008B500BF6846FFF795FC04466F
:101C700020460099FFF722FFFFF784FEF4E770B5D6
:101C8000044600F0D7F994F9455010E0606A08B9AD
:101C9000012000E0002038B904F1240001F042FAEC
:101CA00018B100F02FFC00E003E0681E45B2002DE3
:101CB000ECDC00BFFF2084F8450000F0FDF900F0E7
:101CC000B9F994F9445010E0206908B9012000E006
:101CD000002048B904F1100001F024FA08B100F026
:101CE00011FC681E45B200E001E0002DECDC00BFF5
:101CF000FF2084F8440000F0DFF970BD2DE9F041C9
:101D000004464FF0000800F0C5FC4848006808B9D8
:101D1000FFF756FC464800682040002873D114B3F2
:101D200004F10800A0421ED9083404F00700D8B11D
:101D300004F00700C0F108002044A04211D904F0CB
:101D40000700C0F10800044404F0070008B90120AE
:101D500000E0002040B99C2236A13FA0FFF7BCF86C
:101D600002E0002400E00024002C4CD03E48006833
:101D7000844248D83D4E3046056801E02E462D6825
:101D80006868A04202D228680028F7D12748006876
:101D9000854238D0306800F10808286830606868EB
:101DA000001B102813D92F1907F0070008B90120CC
:101DB00000E0002020B9CF221EA127A0FFF78CF859
:101DC0006868001B78606C603846FFF73DFD264967
:101DD00068680968081A24490860084600682449A8
:101DE0000968884203D220480068214908601049E8
:101DF0006868096808436860002028601D4800681A
:101E0000401C1C49086001F02BFA08F0070008B9D3
:101E1000012000E0002028B94FF4887205A10EA02F
:101E2000FFF75AF84046BDE8F0810000A800002006
:101E3000BC0000204672656552544F535C706F724F
:101E40007461626C655C4D656D4D616E675C686563
:101E500061705F342E6300004572726F723A2573B1
:101E60002C25640D0A000000AC000020A00000201A
:101E7000B0000020B4000020001F4FF0807303600A
:101E8000001F21F001030360001F034B036014389F
:101E90000260203870470000F91B00087CB5054639
:101EA00000F0C8F8274801231A464FF47A710090D1
:101EB00025A001F09DFA284908600846006858B13D
:101EC00001F040F80446002003462246012100901C
:101ED0002148006801F0E0FA20480223002241F284
:101EE000883100901EA001F083FA2149086008465D
:101EF000006858B101F026F8044600200346224647
:101F0000012100901A48006801F0C6FA1948022120
:101F100000233222CDE9001017A11A4800F0D2FFA9
:101F20001948032100233222CDE9001017A11A48D5
:101F300000F0C8FF1948006800F04EFA00F0BCF845
:101F40007CBD0000450900084175746F52656C6FD7
:101F5000616454696D6572000C000020B9090008C5
:101F60004F6E6553686F7454696D657200000000B0
:101F700010000020040000206F6C65645F746173C2
:101F80006B00000045120008080000206B65795FB7
:101F90007461736B000000007D11000800000020D8
:101FA00001460A69D1E901309860D1E9010358601E
:101FB0005068884201D1886850600020086110682C
:101FC000401E10601068704700F1080141604FF03A
:101FD000FF31816000F10801C160016100210160F1
:101FE000704700210161704710B502460B685C1C08
:101FF0000CB9106907E002F1080000E0406844688D
:1020000024689C42FAD944684C604C68A16088609E
:1020100041600A611468641C146010BD42684A6023
:1020200093688B60936859609160086103685B1CDA
:102030000360704710B500BF502080F31188BFF3D4
:102040004F8FBFF36F8F00BF0B480068401C0A49D9
:1020500008600846006801280DD108480068C0B231
:1020600008B9012000E0002028B940F2731204A151
:102070000DA0FEF731FF10BDC000002004ED00E010
:102080004672656552544F535C706F727461626C36
:10209000655C525644535C41524D5F434D335C7016
:1020A0006F72742E630000004572726F723A25736E
:1020B0002C25640D0A00000010B50B48006828B9F3
:1020C0004FF4BD7209A113A0FEF706FF0648006891
:1020D000401E054908600846006820B9002080F3CA
:1020E000118800BF00BF10BDC000002046726565AA
:1020F00052544F535C706F727461626C655C5256DF
:1021000044535C41524D5F434D335C706F72742E8B
:10211000630000004572726F723A25732C25640DBE
:102120000A00000070B506463546002E3AD0083D3C
:102130002C461D4960680968084008B1012000E08C
:10214000002028B94FF4927218A121A0FEF7C4FE16
:10215000206808B9012000E0002028B940F22512CB
:1021600012A11BA0FEF7B8FE0F496068096808407D
:10217000C0B12068B0B90C496068096888436060E4
:1021800000F088FA16496068096808441449086034
:102190002046FFF759FB13480068401C11490860AE
:1021A00001F05EF870BD0000BC000020467265655D
:1021B00052544F535C706F727461626C655C4D6514
:1021C0006D4D616E675C686561705F342E63000001
:1021D0004572726F723A25732C25640D0A00000057
:1021E000AC000020B800002000204FF0E021086182
:1021F0008861024848610720086170473F19010063
:1022000070B5FDF7C5FF0546102D11D305F1E0208F
:1022100090F8F04310480078844201DB012000E090
:10222000002028B940F2BB220CA116A0FEF754FEF4
:102230001848006800F4E06017490968884201D82E
:10224000012000E0002028B940F2CB2203A10DA01C
:10225000FEF742FE70BD0000C400002046726565B6
:1022600052544F535C706F727461626C655C52566D
:1022700044535C41524D5F434D335C706F72742E1A
:10228000630000004572726F723A25732C25640D4D
:102290000A0000000CED00E0C80000202DE9F0412C
:1022A00006460F462EB940F6C82211A115A0FEF72A
:1022B00013FE0025BFB1002412E0164800EBC40055
:1022C0004068B04203D1134800EBC4050AE035B9B9
:1022D000104850F8340010B90E4800EBC405641CD7
:1022E0000A2CEAD300BF0DB12F606E60BDE8F0810B
:1022F0004672656552544F535C71756575652E6302
:10230000000000004572726F723A25732C25640D2F
:102310000A000000980100202DE9F04105460E4614
:1023200017462C46FFF786FE94F94400401C10B96E
:10233000002084F8440094F94500401C10B90020A6
:1023400084F84500FFF7B8FEA06B28B93A4631463D
:1023500004F1240000F006F92046FFF790FCBDE8E8
:10236000F081000070B504460025ACB10F4800684C
:1023700008B9012000E0002028B940F24A520CA11F
:1023800010A0FEF7A9FD00F085F900212046FEF718
:1023900087FF00F065FF05463DB94FF080500D49BD
:1023A0000860BFF34F8FBFF36F8F70BD88000020B0
:1023B0004672656552544F535C7461736B732E6340
:1023C000000000004572726F723A25732C25640D6F
:1023D0000A00000004ED00E070B50546FFF72AFE94
:1023E00015B92F48006800E028460446201DFFF775
:1023F000D7FD78B9E06A00EB80002A4951F8200047
:1024000040B994F82C10012088402749096881437D
:1024100025480160A06A18B104F11800FFF7C0FD5B
:1024200022480068401C214908601D480068844219
:1024300009D1211D1E48FFF7F1FD1E480068401C10
:102440001C49086006E01C480068401E1A490860E4
:10245000FFF782FBFFF730FE11480068844202D08C
:102460002046FFF78FF815480068C0B10C48006897
:10247000844214D11248006808B9012000E000200D
:1024800028B940F2DD420FA113A0FEF725FD4FF061
:10249000805015490860BFF34F8FBFF36F8F70BD39
:1024A0004C000020E801002064000020780000209B
:1024B000A4040020580000205C00002068000020D8
:1024C000880000204672656552544F535C746173F6
:1024D0006B732E63000000004572726F723A2573B1
:1024E0002C25640D0A00000004ED00E00349096892
:1024F00001600349096841607047000074000020D2
:102500006000002001200149086070477000002031
:1025100070B504460D462CB940F61D4207A10CA02B
:10252000FEF7DAFC0E48016818312046FFF75CFD23
:1025300001212846FEF7B4FE70BD000046726565B5
:1025400052544F535C7461736B732E630000000030
:102550004572726F723A25732C25640D0A000000D3
:102560004C00002070B504460E4615462CB940F6C6
:10257000534211A115A0FEF7AFFC60681749096826
:10258000C8611649826809680A62144909681831E5
:102590008268516011490968183181600F490968E2
:1025A0008C622168491C21600DB14FF0FF3629462D
:1025B0003046FEF775FE70BD4672656552544F5346
:1025C0005C7461736B732E63000000004572726F60
:1025D000723A25732C25640D0A0000004C0000207F
:1025E0001CB51B4800210B468022CDE9001019A123
:1025F0001A4800F067FC0446012C02D100F014FFD9
:102600000446012C15D100BF502080F31188BFF380
:102610004F8FBFF36F8F00BF4FF0FF30104908603E
:1026200001201049086000200F49086000F08EF872
:102630000BE0601C08B1012000E0002028B940F642
:1026400041020AA10EA0FEF747FC114800681CBD1C
:102650008000002049444C45000000003D16000861
:102660007C00002068000020600000204672656544
:1026700052544F535C7461736B732E6300000000FF
:102680004572726F723A25732C25640D0A000000A2
:102690008400002002480068401C0149086070471F
:1026A0008800002010B51B48006818B101201A49A5
:1026B00008602DE000201849086018480068B0FA4A
:1026C00080F0C0F11F0404EB8400154951F820008C
:1026D00008B1012000E0002028B940F6034211A112
:1026E00015A0FEF7F9FB04EB84010D4A02EB810013
:1026F00041684968416000F1080142688A4202D19C
:102700004168496841604168C9680F4A116000BF6B
:1027100010BD000088000020700000206400002030
:10272000E80100204672656552544F535C74617332
:102730006B732E63000000004572726F723A25734E
:102740002C25640D0A0000004C0000201CB53B4CF9
:10275000204600780190FF20214608700846007846
:1027600000909DF8000000F0F0009DF800108842F5
:1027700001D1012000E0002028B940F21F1230A151
:1027800039A0FEF7A9FB9DF8000000F050003A497F
:10279000087007203949086009E038480068401E81
:1027A000364908609DF800004006000E00909DF834
:1027B000000000F080008028EFD030480068C0F1B1
:1027C0000700042801D1012000E0002028B940F2D0
:1027D00033121BA124A0FEF77FFB28480068C0F13C
:1027E0000700042801D1012000E0002028B94FF49F
:1027F0009E7213A11CA0FEF76FFB20480068000228
:102800001E4908600846008800F4E06008600B4933
:10281000019808701A48006840F470001849086070
:102820000846006840F070400860FFF7DDFC0020BB
:1028300014490860FDF776FC00201CBD00E400E0B0
:102840004672656552544F535C706F727461626C6E
:10285000655C525644535C41524D5F434D335C704E
:102860006F72742E630000004572726F723A2573A6
:102870002C25640D0A000000C4000020C8000020C0
:1028800020ED00E0C00000202DE9F84305460E468B
:1028900017460024E5B1601EB0FBF5F0B04217D337
:1028A00005FB06F010F1490F12D805FB06F909F1F6
:1028B0004800FFF723FA04468CB1A04608F1480807
:1028C0003B464246314628460094FEF7CBFE06E0E2
:1028D0002CB94FF4E37203A107A0FEF7FDFA2046DE
:1028E000BDE8F8834672656552544F535C71756557
:1028F00075652E63000000004572726F723A257391
:102900002C25640D0A0000002DE9F04105460E4615
:1029100001272C462CB94FF488722CA130A0FEF769
:10292000DBFA002C42D0E06B00283FD04FF0FF31A3
:10293000E06BB1FBF0F0216C884237D3FFF77AFBF4
:10294000D4E90F12206801FB0200A0600020A06300
:1029500020686060E06B401E226C216800FB021161
:10296000E160FF2084F8440084F845009EB92069A6
:1029700008B9012000E00020A8B904F1100000F01F
:10298000D1FB80B14FF0805019490860BFF34F8FE1
:10299000BFF36F8F07E004F11000FFF715FB04F1A0
:1029A0002400FFF711FBFFF787FB00E000270FB1C2
:1029B000012000E0002028B940F2451203A108A040
:1029C000FEF78AFA3846BDE8F08100004672656578
:1029D00052544F535C71756575652E63000000009D
:1029E0004572726F723A25732C25640D0A0000003F
:1029F00004ED00E02DE9FF4383B0064688461D46FE
:102A00004FF0000934462CB940F22E3258A15DA097
:102A1000FEF762FAB8F1000F01D1206C08B901206D
:102A200000E0002028B940F22F3251A155A0FEF756
:102A300053FA022D02D1E06B012801D1012000E000
:102A4000002028B94FF44C7249A14EA0FEF744FA79
:102A500000F068FA08B9059808B9012000E00020E4
:102A600028B940F2333242A146A0FEF735FA00BF42
:102A7000FFF7E0FAA06BE16B884201D3022D28D169
:102A80002A4641462046FEF748FD0746606A08B9D7
:102A9000012000E0002068B904F1240000F042FBAE
:102AA00088B14FF080503B490860BFF34F8FBFF3B0
:102AB0006F8F08E03FB14FF0805036490860BFF398
:102AC0004F8FBFF36F8FFFF7F7FA012007B0BDE814
:102AD000F083059818B9FFF7EFFA0020F6E7B9F18F
:102AE000000F04D101A8FFF701FD4FF00109FFF726
:102AF000E3FAFFF7CFFDFFF79DFA94F94400401C7D
:102B000010B9002084F8440094F94500401C10B925
:102B1000002084F84500FFF7CFFA05A901A800F0CE
:102B200081F9F0B92046FEF7FCFEA0B104F11000D7
:102B30000599FFF7EDFC2046FFF7A1F800F090FBA8
:102B4000002895D14FF0805012490860BFF34F8F95
:102B5000BFF36F8F8CE72046FFF791F800F080FB02
:102B600086E72046FFF78BF800F07AFB0020ADE700
:102B70004672656552544F535C71756575652E6379
:102B8000000000004572726F723A25732C25640DA7
:102B90000A00000004ED00E02DE9F84F07468B46DF
:102BA00090461E463C462CB940F2024238A13DA058
:102BB000FEF792F9BBF1000F01D1206C08B901209A
:102BC00000E0002028B940F2034231A135A0FEF711
:102BD00083F9022E02D1E06B012801D1012000E02F
:102BE000002028B940F2044229A12EA0FEF774F972
:102BF000FFF706FB00BF5021EFF3118081F311882E
:102C0000BFF34F8FBFF36F8F00BF0546A06BE16B23
:102C1000884201D3022E32D194F945A0A06B0090D6
:102C2000324659462046FEF778FC0AF1010088B981
:102C3000606A08B9012000E0002050B904F12400C6
:102C400000F070FA28B1B8F1000F02D00120C8F8E6
:102C5000000011E0BAF17F0F01D0012000E0002058
:102C600028B940F28D420AA10EA0FEF735F90AF10B
:102C7000010040B284F845004FF0010901E04FF037
:102C8000000900BF85F3118800BF4846BDE8F88FF2
:102C90004672656552544F535C71756575652E6358
:102CA000000000004572726F723A25732C25640D86
:102CB0000A0000002DE9F74183B005460E464FF0AB
:102CC00000082C462CB940F251524CA150A0FEF7FE
:102CD00003F90EB9206C08B9012000E0002028B9E2
:102CE00040F2555245A14AA0FEF7F6F800F01AF955
:102CF00008B9059808B9012000E0002028B940F281
:102D00005A523EA142A0FEF7E7F800BFFFF792F942
:102D1000A76BF7B131462046FEF7EAFB781EA063A9
:102D2000206908B9012000E0002060B904F110001A
:102D300000F0F8F938B14FF0805039490860BFF31E
:102D40004F8FBFF36F8FFFF7B7F9012006B0BDE8D3
:102D5000F081059818B9FFF7AFF90020F6E7B8F150
:102D6000000F04D101A8FFF7C1FB4FF00108FFF7E6
:102D7000A3F9FFF78FFCFFF75DF994F94400401CBD
:102D800010B9002084F8440094F94500401C10B9A3
:102D9000002084F84500FFF78FF905A901A800F08D
:102DA00041F8F0B92046FEF7AFFDA0B104F12400D0
:102DB0000599FFF7ADFB2046FEF761FF00F050FAE2
:102DC0000028A3D14FF0805015490860BFF34F8F02
:102DD000BFF36F8F9AE72046FEF751FF00F040FAED
:102DE00094E72046FEF74BFF00F03AFA2046FEF744
:102DF0008BFD00288AD00020A8E700004672656598
:102E000052544F535C71756575652E630000000068
:102E10004572726F723A25732C25640D0A0000000A
:102E200004ED00E070B505460C462DB940F6FE42B3
:102E300019A11EA0FEF750F82CB940F6FF4216A1CA
:102E40001AA0FEF749F8FFF7F5F81C480368686810
:102E50001A1A2068401C08B9002619E01849286889
:102E60000968884206D06868984203D80126002085
:102E700020600DE02068904207D92068801A206009
:102E80002846FFF733FB002602E0002020600126E1
:102E9000FFF712F9304670BD4672656552544F53C4
:102EA0005C7461736B732E63000000004572726F77
:102EB000723A25732C25640D0A0000006000002082
:102EC000740000202DE9FF4F85B0804689461746E3
:102ED000DDE912ABB800FEF711FF064656B14C20F3
:102EE000FEF70CFF04460CB1266304E03046FFF702
:102EF00019F900E000247CB10020CDE900ABCDE958
:102F000002403A4649464046089BFEF7BFFB204632
:102F1000FEF726FA012501E04FF0FF35284609B0FB
:102F2000BDE8F08F0549096809B9012005E00449A9
:102F3000096809B9022000E00020704768000020FD
:102F400088000020014908687047000060000020E8
:102F50002DE9F0414FF000085E48006800287DD15F
:102F60005D480068451C5C480560EDB95B48006839
:102F7000006808B9012000E0002028B940F6C82206
:102F800057A15CA0FDF7A8FF544807685D4800689A
:102F9000524908605B4807605B480068401C5A491A
:102FA0000860FEF7D9FD00BF58480068854277D316
:102FB00000BF4A480068006808B9012000E000200E
:102FC00020B14FF0FF305149086068E04348006885
:102FD000C068C4686668B54202D24C4806605EE0CC
:102FE0006069D4E902128A60D4E902214A60211D95
:102FF00042688A4201D1E168416000226261016851
:10300000491E0160A06A98B1A06AD4E907128A60DB
:10301000D4E907214A6004F1180142688A4201D1CB
:10302000216A41600022A2620168491E016000BF5E
:1030300094F82C1001208840354909680843344928
:103040000860E16A01EB8101324A02EB81014868C4
:10305000A0608268E260211D826800E032E0516079
:103060008160E16A01EB81012A4A02EB810262611F
:10307000E16A01EB8101274A52F82110491CE26AFA
:1030800002EB8202234B43F822102349E06A0968CD
:10309000C96A88428DD34FF001088AE700E000BF7B
:1030A0001D480068C06A00EB80001A4951F82000F2
:1030B000012801D94FF001081848006808B14FF005
:1030C000010804E016480068401C154908604046A5
:1030D000BDE8F08188000020600000205000002042
:1030E0004672656552544F535C7461736B732E6303
:1030F000000000004572726F723A25732C25640D32
:103100000A00000054000020740000207C00002011
:1031100064000020E80100204C0000207000002026
:103120006C00002070B50646F068C4682CB940F603
:1031300083423CA140A0FDF7CFFEA06AD4E907126C
:103140008A60D4E907214A6004F1180142688A4282
:1031500001D1216A41600022A2620168491E01601A
:103160003948006800283DD16069D4E902128A60BC
:10317000D4E902214A60211D42688A4201D1E168F6
:103180004160002262610168491E016094F82C10C0
:10319000012088402D49096808432C490860E16AEC
:1031A00001EB81012A4A02EB81014868A060826834
:1031B000E260211D826851608160E16A01EB81015A
:1031C000234A02EB81026261E16A01EB8101204A3C
:1031D00052F82110491CE26A02EB82021C4B43F8B0
:1031E000221010E01B494868E0618268226204F105
:1031F0001801826851608160164AA262114609680E
:10320000491C116000BF1449E06A0968C96A884214
:1032100004D9012501201149086000E00025284655
:1032200070BD00004672656552544F535C74617303
:103230006B732E63000000004572726F723A257343
:103240002C25640D0A000000880000206400002086
:10325000E8010020900400204C00002070000020B5
:1032600070B5002400265048006828B940F6B40222
:103270004EA153A0FDF730FEFEF7DCFE4A48006881
:10328000401E494908600846006800287ED1504821
:10329000006800287AD05BE04E48C068C468A06A25
:1032A000D4E907128A60D4E907214A6004F11801C1
:1032B00042688A4201D1216A41600022A26201680B
:1032C000491E01606069D4E902128A60D4E90221D2
:1032D0004A60211D42688A4201D1E16841600022B2
:1032E00062610168491E016094F82C100120884039
:1032F00039490968084338490860E16A01EB8101EE
:10330000364A02EB81014868A0608268E260211DB4
:10331000826851608160E16A01EB81012F4A02EB12
:1033200081026261E16A01EB81012C4A52F82110AD
:10333000491CE26A02EB8202284B43F8221028491A
:10334000E06A0968C96A884202D3012025490860F9
:103350002048006808B9012000E0002000289BD028
:103360000CB1FEF7F9FB2048056865B100BFFFF717
:10337000EFFD10B101201B4908606D1E002DF6D134
:103380000020194908601748006800E008E038B1DB
:103390000126300715490860BFF34F8FBFF36F8FC9
:1033A000FEF78AFE304670BD8800002046726565D3
:1033B00052544F535C7461736B732E6300000000B2
:1033C0004572726F723A25732C25640D0A00000055
:1033D0005C0000209004002064000020E801002030
:1033E0004C000020700000206C00002004ED00E084
:1033F0002DE9FC4705460E4617469846DDF828900D
:103400002820FEF77BFC044654B1002084F82400F9
:1034100043463A4631462846CDE90094FEF7A6F9E0
:103420002046BDE8FC8700001CB50024FEF70AF822
:103430000B48006858B10B481F2100234FF48072DD
:10344000CDE9001008A10A48FFF73CFD04462CB95D
:1034500040F2191207A10CA0FDF73EFD20461CBD4D
:103460009400002098000020546D72205376630071
:10347000651C00084672656552544F535C74696D53
:103480006572732E630000004572726F723A257385
:103490002C25640D0A0000002DE9FE4304460D466C
:1034A00016461F46DDF828804FF000092CB940F27F
:1034B0008B1216A11AA0FDF70FFD1D48006810B36E
:1034C000009501960294062D15DAFFF72BFD0228D0
:1034D00008D100234246694615480068FFF78AFA7A
:1034E000814610E000231A46694611480068FFF73C
:1034F00081FA814607E000233A4669460C48006895
:10350000FFF74AFB81464846BDE8FE834672656583
:1035100052544F535C74696D6572732E63000000E2
:103520004572726F723A25732C25640D0A000000F3
:1035300094000020000000000000000000000000D7
:1035400000000000000000F8000000000000003350
:103550003000000000100C06100C060000000000F7
:103560000000000040C07840C0784000043F0404E0
:103570003F040400007088FC08300000001820FFA1
:10358000211E0000F008F000E018000000211C03DC
:103590001E211E0000F00888700000001E21232458
:1035A0001927211010160E00000000000000000076
:1035B00000000000000000E0180402000000000706
:1035C0001820400000020418E0000000004020180D
:1035D00007000000404080F0804040000202010FE0
:1035E00001020200000000F0000000000101011FC4
:1035F00001010100000000000000000080B0700028
:1036000000000000000000000000000000010101B7
:103610000101010100000000000000000030300046
:103620000000000000000000806018040060180620
:103630000100000000E010080810E000000F10205A
:1036400020100F00001010F8000000000020203FA4
:10365000202000000070080808887000003028242E
:1036600022213000003008888848300000182020CF
:1036700020110E000000C02010F8000000070424F4
:10368000243F240000F80888880808000019212039
:1036900020110E0000E0108888180000000F112093
:1036A00020110E0000380808C83808000000003F4C
:1036B000000000000070880808887000001C2221AB
:1036C00021221C0000E010080810E0000000312258
:1036D00022110F00000000C0C000000000000030F8
:1036E000300000000000008000000000000080604A
:1036F00000000000000080402010080000010204CB
:1037000008102000404040404040400004040404B1
:10371000040404000008102040800000002010086D
:1037200004020100007048080808F00000000030A2
:1037300036010000C030C828E810E0000718272430
:1037400023140B000000C038E0000000203C2302DE
:103750000227382008F8888888700000203F202041
:1037600020110E00C0300808080838000718202073
:103770002010080008F808080810E000203F20206A
:1037800020100F0008F88888E8081000203F20204B
:103790002320180008F88888E8081000203F20003F
:1037A00003000000C0300808083800000718202077
:1037B000221E020008F808000008F808203F210136
:1037C00001213F20000808F8080800000020203FE1
:1037D0002020000000000808F8080800C080808051
:1037E0007F00000008F888C028180800203F20014A
:1037F0002638200008F8080000000000203F2020A4
:103800002020300008F8F800F8F80800203F003FBA
:10381000003F200008F830C00008F808203F2000D2
:1038200007183F00E01008080810E0000F102020E3
:1038300020100F0008F808080808F000203F2101B8
:1038400001010000E01008080810E0000F1824240F
:1038500038504F0008F8888888887000203F200082
:10386000030C302000708808080838000038202138
:1038700021221C00180808F8080818000000203F42
:103880002000000008F808000008F808001F2020A9
:1038900020201F000878880000C83808000007387A
:1038A0000E010000F80800F80008F800033C0700CB
:1038B000073C0300081868808068180820302C0333
:1038C000032C30200838C800C83808000000203F0A
:1038D0002000000010080808C838080020382621F9
:1038E00020201800000000FE020202000000007FFD
:1038F00040404000000C30C000000000000000010B
:103900000638C00000020202FE00000000404040F5
:103910007F0000000000040202020400000000001A
:103920000000000000000000000000008080808097
:10393000808080800002020400000000000000007F
:103940000000000000008080808000000019242218
:1039500022223F2008F8008080000000003F112054
:1039600020110E000000008080800000000E112059
:1039700020201100000000808088F800000E112037
:1039800020103F200000808080800000001F222245
:1039900022221300008080F0888888180020203FB1
:1039A000202000000000808080808000006B9494C4
:1039B0009493600008F8008080800000203F210080
:1039C00000203F2000809898000000000020203F49
:1039D00020200000000000809898000000C0808037
:1039E000807F000008F8000080808000203F2402D3
:1039F0002D302000000808F8000000000020203FC3
:103A0000202000008080808080808000203F200077
:103A10003F20003F8080008080800000203F210008
:103A200000203F200000808080800000001F2020B8
:103A300020201F00808000808000000080FFA120E7
:103A400020110E000000008080808000000E1120F8
:103A500020A0FF80808080008080800020203F2187
:103A6000200001000000808080808000003324243A
:103A700024241900008080E0808000000000001FE6
:103A8000202000008080000000808000001F202097
:103A900020103F20808080000080808000010E3058
:103AA0000806010080800080008080800F300C03B9
:103AB0000C300F0000808000808080000020312EBC
:103AC0000E312000808080000080808080818E7098
:103AD0001806010000808080808080000021302C4A
:103AE0002221300000000000807C02020000000063
:103AF000003F404000000000FF0000000000000008
:103B0000FF0000000002027C800000000040403FF7
:103B10000000000000060101020204040000000091
:103B200000000000443B000800000020D00000001E
:103B3000F80E0008143C0008D000002028300000D7
:103B4000080F000800000000000000000000000056
:103B50000000000000000000000000000000000065
:103B60000000000001020304010203040607080923
:103B70000204060800A24A04000000000000000041
:103B8000010203040607080901000000000000000C
:103B90000000000000000000000000000000000025
:103BA0000000000000000000000000000000000015
:103BB0000000000000000000000000000000000005
:103BC00000000000000000001F00000000000000D6
:103BD00000000000000000000000000000000000E5
:103BE00000000000000000000000000000000000D5
:103BF00000000000000000000000000000000000C5
:103C000000000000AAAAAAAA00000000000000000C
:043C100000000000B0
:04000005080000ED02
:00000001FF
