:020000040800F2
:10000000382E002099010008810300082D03000804
:100010007D0300080D020008030A0008000000002C
:1000200000000000000000000000000001010008C6
:100030001102000800000000450100080D0600083C
:10004000B3010008B3010008B3010008B3010008C0
:10005000B3010008B3010008B3010008B3010008B0
:10006000B3010008B3010008B3010008B3010008A0
:10007000B3010008B3010008B3010008B301000890
:10008000B3010008B3010008B3010008B301000880
:10009000B3010008B3010008B3010008B301000870
:1000A000B3010008B3010008B3010008B301000860
:1000B000B3010008B3010008B3010008B301000850
:1000C000B3010008B3010008B3010008B301000840
:1000D000B3010008FD060008B3010008B3010008E1
:1000E000B3010008B3010008B3010008DFF80CD029
:1000F00000F07AF800480047650C0008382E002010
:10010000224B19680868B0E8F00F80F30988BFF344
:100110006F8F4FF0000080F311884EF00D0E704786
:100120000000000006480068006880F3088862B696
:1001300061B6BFF34F8FBFF36F8F00DF00BF00BF0B
:1001400008ED00E0EFF30980BFF36F8F0F4B1A68E3
:1001500020E9F00F106008B54FF0BF0080F3118860
:10016000BFF34F8FBFF36F8F01F05EFB4FF00000C6
:1001700080F31188BDE8084019680868B0E8F00FFE
:1001800080F30988BFF36F8F704700BF38000020ED
:10019000EFF3058070470000064880470648004797
:1001A000FEE7FEE7FEE7FEE7FEE7FEE7FEE7FEE727
:1001B000FEE7FEE79D060008ED00000830B50B469F
:1001C000014600202022012409E021FA02F59D4287
:1001D00005D303FA02F5491B04FA02F52844151E5B
:1001E000A2F10102F1DC30BD064C074D06E0E068EB
:1001F00040F0010394E8070098471034AC42F6D36E
:10020000FFF778FFAC1D0008CC1D000800BFFEE71B
:1002100070472DE9F041024600250026002000230A
:100220000024002791F803C00CF00F0591F803C0DB
:100230000CF0100CBCF1000F03D091F802C04CEA96
:10024000050591F800C0BCF1000F31D01468002002
:100250002BE04FF0010C0CFA00F3B1F800C00CEAEF
:1002600003069E4220D183004FF00F0C0CFA03F7D7
:10027000BC4305FA03FC4CEA040491F803C0BCF14A
:10028000280F06D14FF0010C0CFA00FCC2F814C084
:100290000AE091F803C0BCF1480F05D14FF0010C02
:1002A0000CFA00FCC2F810C0401C0828D1D314601E
:1002B000B1F800C0BCF1FF0F34DD546800202EE01F
:1002C00000F1080C4FF0010808FA0CF3B1F800C077
:1002D0000CEA03069E4221D183004FF00F0C0CFA6A
:1002E00003F7BC4305FA03FC4CEA040491F803C08D
:1002F000BCF1280F05D100F1080C08FA0CF8C2F87F
:10030000148091F803C0BCF1480F07D100F1080C2C
:100310004FF0010808FA0CF8C2F81080401C0828B9
:10032000CED35460BDE8F0810161704700BFFEE7A5
:1003300008B50121482000F067F82020ADF8000042
:1003400010208DF8030003208DF80200694609484B
:10035000FFF75FFF20210748FFF7E6FF2020ADF8F9
:10036000000069460448FFF754FF20210248FFF7C8
:10037000DBFF08BD000C01400018014000BFFEE794
:100380007047000070B5002100230F22C47804B329
:10039000154C246804F4E064C4F5E064210AC1F15A
:1003A0000403CA40447804FA03F1847814402143DA
:1003B00009010E4C0678A155047804F01F050124AC
:1003C000AC4005786D11AD0005F1E025C5F80041A0
:1003D00009E0047804F01F050124AC40044D0678C0
:1003E000761145F8264070BD0CED00E000E400E019
:1003F00080E100E002490143024A116070470000B9
:100400000000FA050CED00E029B1064A92690243AA
:10041000044B9A6104E0034A92698243014B9A615A
:10042000704700000010024030B500210022002477
:1004300000232D4D6D6805F00C0121B1042905D074
:10044000082923D105E0294D056022E0274D0560EC
:100450001FE0254D6D6805F47012234D6D6805F49D
:100460008034022505EB92421CB9214D55430560AD
:100470000BE01D4D6D6805F400351DB11C4D554355
:10048000056002E0194D5543056002E0174D056017
:1004900000BF00BF144D6D6805F0F0010909154D4E
:1004A0006B5C0568DD4045600F4D6D6805F4E061EB
:1004B000090A104D6B5C4568DD4085600A4D6D682A
:1004C00005F46051C90A0B4D6B5C4568DD40C560A1
:1004D000054D6D6805F44041890B074D6B5CC5689F
:1004E000B5FBF3F5056130BD0010024000127A0043
:1004F00000093D00080000201800002010B500F0A1
:1005000001F810BD0CB50020019000903348006840
:1005100040F480303149086000BF3048006800F482
:10052000003000900198401C0190009818B9019883
:10053000B0F5A06FF1D12948006800F4003010B187
:100540000120009001E0002000900098012843D194
:100550002348006840F01000214908600846006800
:1005600020F0030008600846006840F002000860C0
:100570001A4840681949486008464068486008467B
:10058000406840F4806048600846406820F47C1071
:1005900048600846406840F4E81048600846006833
:1005A00040F08070086000BF0C48006800F00070E8
:1005B0000028F9D00948406820F003000749486046
:1005C0000846406840F00200486000BF03484068A9
:1005D00000F00C000828F9D10CBD0000001002400A
:1005E00000200240042808D14FF0E021096941F0C1
:1005F00004014FF0E022116107E04FF0E0210969AA
:1006000021F004014FF0E0221161704710B500BFE6
:10061000BF2080F31188BFF34F8FBFF36F8F00BFF0
:1006200001F012FA18B14FF080500449086000BF81
:10063000002080F3118800BF10BD000004ED00E031
:1006400070B505460420FFF7CDFF1048006810493B
:10065000B0FBF1F00F4908700C4800680C49B0FB82
:10066000F1F44FF47A70444301200B4908804FF0B5
:10067000E020006940F002004FF0E02108610846E8
:100680004461006940F00100086170BD1C00002059
:1006900040420F00300000203200002010B5134807
:1006A000006840F0010011490860084640681049A0
:1006B00008400E494860084600680E4908400B494A
:1006C00008600846006820F48020086008464068FA
:1006D00020F4FE0048604FF41F008860FFF70EFF13
:1006E0004FF000600449086010BD00000010024097
:1006F0000000FFF8FFFFF6FE08ED00E010B540F245
:1007000025511D4800F0B8F810B31B4800F070F9EF
:10071000C4B21A48008800F40040C8B917480088DD
:1007200000F4804060B10A2C03D0002013490880F7
:1007300020E01248008840F400401049088019E089
:100740000D2C06D10D48008840F480400B490880EC
:1007500010E00A480088C0F30D0009490C5407480E
:100760000088401C0549088008460088C72801DD2C
:100770000020088010BD0000003801403400002037
:10078000A800002010B586B0044601210420FFF720
:100790003BFE01218803FFF737FE4FF40070ADF8F0
:1007A000140003208DF8160018208DF8170005A9F5
:1007B0001E48FFF72EFD4FF48060ADF814000420B2
:1007C0008DF8170005A91948FFF723FD01940020B3
:1007D000ADF80800ADF80A00ADF80C00ADF8100057
:1007E0000C20ADF80E0001A9114800F095F8012188
:1007F0000F4800F028F840210D4800F01BF80122B6
:1008000040F225510A4800F061F825208DF80000DB
:1008100003208DF801008DF8020001208DF80300FF
:100820006846FFF7AFFD06B010BD000000080140AC
:100830000038014001F40072B2F5007F00D100BF22
:10084000CA430280704721B1828942F400528281FA
:1008500004E082894DF6FF731A4082817047024698
:100860000020B1F5007F00D100BF13880B400BB111
:10087000012000E00020704770B5024600240023EC
:100880000025002040F66A16B14200D100BFC1F336
:10089000421501F01F03012606FA03F3012D02D1D0
:1008A0009689334006E0022D02D1168A334001E0DA
:1008B000968A33400C12012606FA04F41688344056
:1008C00013B10CB1012000E0002070BDF0B503466B
:1008D000002400260025002040F66A17B94200D106
:1008E00000BF1846C1F3421401F01F06012707FAA2
:1008F00006F5012C01D10C3004E0022C01D110309E
:1009000000E014301AB107682F43076002E007685F
:10091000AF430760F0BD00002DE9F04786B0054603
:100920000E460024A24600BFA1460027B08900B1B0
:1009300000BF2F462C8A4CF6FF700440F088044319
:100940002C82AC894EF6F3100440B08831890843FC
:10095000718908430443AC81AC8A4FF6FF400440E0
:10096000B0890443AC8201A8FFF75EFD1F488742AF
:1009700002D1DDF810A001E0DDF80CA0A88900F498
:10098000004040B10AEBCA0000EB0A103168490090
:10099000B0FBF1F807E00AEBCA0000EB0A1031687F
:1009A0008900B0FBF1F86420B8FBF0F004012009E5
:1009B000642101FB1089A88900F4004040B1322075
:1009C00000EBC900B0FBF1F000F00700044308E0C1
:1009D000322000EB09106421B0FBF1F000F00F00B1
:1009E00004432C8106B0BDE8F087000000380140C8
:1009F00001468888C0F308007047C1F3080282806E
:100A0000704700BFFEE700000FB4054B10B503A907
:100A1000044A029800F018F810BC5DF814FB0000BE
:100A2000010C0008A400002002E008C8121F08C141
:100A3000002AFAD170477047002001E001C1121F5F
:100A4000002AFBD1704700002DE9FF4F8BB09A467A
:100A50000F460546002606E025280BD052460D9984
:100A600090476D1C761C28780028F5D10FB03046D1
:100A7000BDE8F08F0024A0460122604900E0044355
:100A800015F8013F203B02FA03F00842F7D128781D
:100A90002E2817D115F8010F44F004042A280ED08F
:100AA0006FF02F022878A0F1300109290AD808EB4D
:100AB000880102EB410100EB01086D1CF2E757F8D9
:100AC000048B6D1C287869283ED006DC0028CDD028
:100AD00063280BD0642804D136E0732810D0752821
:100AE0004BD052460D999047761C85E017F8040BC1
:100AF0008DF8000000208DF80100E946012003E098
:100B000057F8049B4FF0FF3061074FF0000401D409
:100B10000AE0641C44450DDA8442FADB19F804103B
:100B20000029F6D106E0641C8442FCDB19F80410AD
:100B30000029F8D1264404E019F8010B52460D991A
:100B40009047641EF8D257E001CF4FF00A0B0028FF
:100B500002DA40422D2102E0210504D52B218DF837
:100B60002410012103E0E10705D02021F7E70DF172
:100B7000200908910CE00021F9E701CF4FF00A0BA2
:100B8000F9E75946FFF71AFB01F1300209F8012D88
:100B90000028F6D1ADEB090000F1200B600701D46D
:100BA0004FF00108D84502DDA8EB0B0000E0002063
:100BB0008046002406E009A85246005D0D99904742
:100BC000641C761C08988442F5DB04E03020524611
:100BD0000D999047761CB8F10001A8F10108F5DCE9
:100BE00005E019F8010B52460D999047761CBBF1B0
:100BF0000001ABF1010BF4DC6D1C34E709280100A6
:100C000070B504460D46E1B20548FFF7F6FE00BF99
:100C100080210348FFF723FE0028F9D0204670BD4D
:100C20000038014010E009A0FFF7EEFE00200B495C
:100C30000860C82000F0D6FC01200949C1F89401E1
:100C40004FF4487000F0CEFCEDE7000048454C4CF6
:100C50004F20574F524C44210D0A000094812142ED
:100C6000008021421CB54820FFF7EAFC4FF4407099
:100C7000FFF7C0FBFFF75CFB4FF41650FFF782FD58
:100C80000648012100238022CDE9001004A1074875
:100C900000F0AAFE00F06AFD00201CBD000000204C
:100CA00073746172745F7461736B000041130008A8
:100CB0002DE9F04105460E4626480768264800689B
:100CC000001D00F05FFB50B92348006890F82C101D
:100CD0000120884021490968814320480160681C3F
:100CE000D8B9D6B11E4948681B49096888601A49B5
:100CF00082680968CA6018490968091D82685160DC
:100D000015490968091D8160154A134909684A6136
:100D100011460968491C11601AE07C190E480068E8
:100D20004460BC4207D20C480168091D0D480068A8
:100D300000F04CFB0CE008480168091D0A480068F7
:100D400000F044FB09480068844201D2074804606F
:100D5000BDE8F0814C000020380000205000002049
:100D600024020020400000203C00002068000020F9
:100D700010B5044600F050FB2F480068401C2E4977
:100D800008602E48006840B92C4804600846006896
:100D900001280DD100F04EF90AE02948006838B961
:100DA00026480068C06AE16A884201D82348046086
:100DB00024480068401C2349086094F82C10012046
:100DC00088402149096808431F490860E16A01EB2E
:100DD00081011E4A02EB81014868A0608268E260DE
:100DE000211D826851608160E16A01EB8101174A2F
:100DF00002EB81026261E16A01EB8101134A52F860
:100E00002110491CE26A02EB8202104B43F82210C7
:100E100000F044FB0A48006868B108480068C06AEE
:100E2000E16A884207D24FF0805009490860BFF359
:100E30004F8FBFF36F8F10BD480000203800002097
:100E400054000020640000205000002070010020A9
:100E500004ED00E010B516E000F0DEFA0C48C068C2
:100E6000C468201D00F08EFA0A480068401E094937
:100E7000086009480068401E0749086000F00EFB42
:100E8000204600F00BF8044800680028E4D110BDAB
:100E900010020020480000204400002010B5044645
:100EA000206B00F031FB204600F02EFB10BD00004F
:100EB00030B54FF42053174800F007042CB1C01D83
:100EC00020F00700134C041B1B1B0246124C22602F
:100ED0000024114D6C60D018083820F007000F4C2A
:100EE000206000240D4D2D686C600C4D2D682C6029
:100EF0001146441A4C60094C24680C60084D4C683B
:100F00002C60084D4C682C604FF00044064D2C605E
:100F100030BD000038020020780000208000002052
:100F200088000020840000209400002000BFFFF70C
:100F300091FF064800680128F9D94FF08050044914
:100F40000860BFF34F8FBFF36F8FF0E77001002091
:100F500004ED00E02DE9FF5F81460E469246DDE993
:100F60000E7B109CAAF10100216B01EB800828F098
:100F7000070808F0070008B9012000E0002028B9A0
:100F80004FF4587222A127A0FFF73EFD86B100253D
:100F900007E0715D04F134004155705D00B902E075
:100FA0006D1C102DF5D300BF00214320015502E038
:100FB000002084F83400052F01D2012000E0002039
:100FC00028B940F2973212A116A0FFF71DFD052F98
:100FD00000D30427E762201D00F0F5F904F11800A2
:100FE00000F0F1F92461C7F10500A06164620020FE
:100FF000606484F8480049464046039A00F08EF940
:101000002060BBF1000F01D0CBF80040BDE8FF9F8E
:101010004672656552544F535C7461736B732E63F3
:10102000000000004572726F723A25732C25640D22
:101030000A00000010B5002407E004EB84010F4A09
:1010400002EB810000F0B2F9641C052CF5D30C48CA
:1010500000F0ACF90B4800F0A9F90B4800F0A6F934
:101060000A4800F0A3F90A4800F0A0F90448094929
:10107000086004480849086010BD000070010020A5
:10108000D4010020E8010020FC0100201002002013
:10109000240200203C0000204000002010B5014642
:1010A000164800E0006803688B42FBD302464368A1
:1010B00013448B4204D143684C6823444360014687
:1010C0000A464B6813440468A34211D10C4C0368D0
:1010D0002468A34208D04B680468646823444B60CA
:1010E00003681B680B6005E0054B1B680B6001E0A3
:1010F00003680B60884200D0016010BD78000020BA
:101100008000002009480068006808B9012000E05C
:10111000002020B14FF0FF300549086005E003488A
:101120000068C06800680249086070473C00002001
:10113000680000200B480068401C08B9012000E04E
:10114000002020B9CE2208A111A0FFF75DFC00BF4E
:10115000BF2080F31188BFF34F8FBFF36F8F00BFA5
:1011600000BFFEE7980000204672656552544F5359
:101170005C706F727461626C655C525644535C4182
:10118000524D5F434D335C706F72742E63000000EC
:101190004572726F723A25732C25640D0A000000A7
:1011A0002DE9F04104464FF0000800F035FB4848B7
:1011B000006808B9FFF77CFE464800682040002818
:1011C00073D114B304F10800A0421ED9083404F00E
:1011D0000700D8B104F00700C0F108002044A04285
:1011E00011D904F00700C0F10800044404F007001E
:1011F00008B9012000E0002040B99C2236A13FA0A0
:10120000FFF702FC02E0002400E00024002C4CD098
:101210003E480068844248D83D4E3046056801E0AB
:101220002E462D686868A04202D228680028F7D1AF
:1012300027480068854238D0306800F108082868DF
:1012400030606868001B102813D92F1907F00700B9
:1012500008B9012000E0002020B9CF221EA127A05C
:10126000FFF7D2FB6868001B78606C603846FFF7B8
:1012700015FF264968680968081A24490860084665
:10128000006824490968884203D22048006821493F
:101290000860104968680968084368600020286091
:1012A0001D480068401C1C49086000F0B7FC08F0AD
:1012B000070008B9012000E0002028B94FF4887227
:1012C00005A10EA0FFF7A0FB4046BDE8F08100009D
:1012D00080000020940000204672656552544F53F0
:1012E0005C706F727461626C655C4D656D4D616EB2
:1012F000675C686561705F342E6300004572726FD1
:10130000723A25732C25640D0A0000008400002029
:1013100078000020880000208C000020001F4FF083
:1013200080730360001F21F001030360001F034B63
:10133000036014380260203870470000351100083F
:101340001CB5044600F068F8084802210023322248
:10135000CDE9001006A1094800F046FB08480068E6
:1013600000F07AF900F09AF81CBD0000040000209B
:101370006C6564315F7461736B000000250C0008BC
:101380000000002001460A69D1E901309860D1E9E6
:10139000010358605068884201D18868506000207D
:1013A00008611068401E10601068704700F1080165
:1013B00041604FF0FF31816000F10801C1600161BF
:1013C00000210160704700210161704710B502469D
:1013D0000B685C1C0CB9106907E002F1080000E022
:1013E0004068446824689C42FAD944684C604C6860
:1013F000A160886041600A611468641C146010BDBB
:1014000042684A6093688B60936859609160086194
:1014100003685B1C0360704710B500BFBF2080F3FA
:101420001188BFF34F8FBFF36F8F00BF0B48006869
:10143000401C0A4908600846006801280DD1084888
:101440000068C0B208B9012000E0002028B940F2CD
:10145000731204A10DA0FFF7D7FA10BD9800002069
:1014600004ED00E04672656552544F535C706F7234
:101470007461626C655C525644535C41524D5F43EB
:101480004D335C706F72742E630000004572726F92
:10149000723A25732C25640D0A00000010B50B4824
:1014A000006828B94FF4BD7209A113A0FFF7ACFA88
:1014B00006480068401E054908600846006820B9D3
:1014C000002080F3118800BF00BF10BD98000020ED
:1014D0004672656552544F535C706F727461626CF2
:1014E000655C525644535C41524D5F434D335C70D2
:1014F0006F72742E630000004572726F723A25732A
:101500002C25640D0A00000070B506463546002EF5
:101510003AD0083D2C461D4960680968084008B16A
:10152000012000E0002028B94FF4927218A121A0F8
:10153000FFF76AFA206808B9012000E0002028B906
:1015400040F2251212A11BA0FFF75EFA0F49606856
:1015500009680840C0B12068B0B90C4960680968E2
:101560008843606000F058F91649606809680844CB
:10157000144908602046FFF791FD13480068401C9D
:101580001149086000F04AFB70BD00009400002083
:101590004672656552544F535C706F727461626C31
:1015A000655C4D656D4D616E675C686561705F344B
:1015B0002E6300004572726F723A25732C25640DFC
:1015C0000A000000840000209000002000204FF05E
:1015D000E02108618861024848610720086170477E
:1015E0003F19010070B504460025ACB10F480068F2
:1015F00008B9012000E0002028B940F249520CA1AE
:1016000010A0FFF701FA00F007F900212046FFF7CC
:101610004FFB00F003FB05463DB94FF080500D49EC
:101620000860BFF34F8FBFF36F8F70BD7400002051
:101630004672656552544F535C7461736B732E63CD
:10164000000000004572726F723A25732C25640DFC
:101650000A00000004ED00E070B50546FFF7DCFE6F
:1016600015B92F48006800E028460446201DFFF702
:1016700089FE78B9E06A00EB80002A4951F8200021
:1016800040B994F82C10012088402749096881430B
:1016900025480160A06A18B104F11800FFF772FE36
:1016A00022480068401C214908601D4800688442A7
:1016B00009D1211D1E48FFF7A3FE1E480068401CEB
:1016C0001C49086006E01C480068401E1A49086072
:1016D000FFF718FDFFF7E2FE11480068844202D0D0
:1016E0002046FFF7DBFB15480068C0B10C480068D6
:1016F000844214D11248006808B9012000E000209B
:1017000028B940F2DC420FA113A0FFF77DF94FF09A
:10171000805015490860BFF34F8FBFF36F8F70BDC6
:1017200038000020700100205000002064000020DC
:101730001002002044000020480000205400002037
:10174000740000204672656552544F535C74617397
:101750006B732E63000000004572726F723A25733E
:101760002C25640D0A00000004ED00E01CB51948AA
:1017700000210B468022CDE9001017A1184800F087
:1017800033F90446012C15D100BFBF2080F3118826
:10179000BFF34F8FBFF36F8F00BF4FF0FF30114982
:1017A000086001201049086000201049086000F01E
:1017B0008FF80BE0601C08B1012000E0002028B980
:1017C0004FF404620AA10FA0FFF71EF91148006848
:1017D0001CBD00006C00002049444C450000000086
:1017E0002D0F000868000020540000204C0000204D
:1017F0004672656552544F535C7461736B732E630C
:10180000000000004572726F723A25732C25640D3A
:101810000A0000007000002002480068401C0149D6
:10182000086070477400002010B51B48006818B1AC
:1018300001201A4908602DE0002018490860184866
:101840000068B0FA80F0C0F11F0404EB8400154971
:1018500051F8200008B1012000E0002028B940F62E
:10186000024211A115A0FFF7CFF804EB84010D4A45
:1018700002EB810041684968416000F1080142685B
:101880008A4202D14168496841604168C9680F4A8B
:10189000116000BF10BD0000740000205C0000203B
:1018A00050000020700100204672656552544F536D
:1018B0005C7461736B732E63000000004572726F7D
:1018C000723A25732C25640D0A00000038000020B0
:1018D0001CB5324C204600780190FF20214608704C
:1018E0000846007800909DF800009DF8001088429E
:1018F00001D1012000E0002028B940F21F1228A1E8
:1019000031A0FFF781F89DF8000000F0BF003249D8
:10191000087007203149086009E030480068401E1F
:101920002E4908609DF800004006000E00909DF8CA
:10193000000000F080008028EFD028480068C0F147
:101940000700042801D1012000E0002028B940F25E
:10195000331213A11CA0FFF757F8204800680002BB
:101960001E4908600846008800F4E06008600B49E2
:10197000019808701A48006840F47F001849086010
:101980000846006840F07F400860FFF71FFE002017
:1019900014490860FEF7C6FB00201CBD00E400E00F
:1019A0004672656552544F535C706F727461626C1D
:1019B000655C525644535C41524D5F434D335C70FD
:1019C0006F72742E630000004572726F723A257355
:1019D0002C25640D0A0000009C000020A0000020BF
:1019E00020ED00E0980000202DE9FF4F85B08046F3
:1019F00089461746DDE912ABB800FFF7D1FB064672
:101A000056B14C20FFF7CCFB04460CB1266304E032
:101A10003046FFF779FD00E000247CB10020CDE9DD
:101A200000ABCDE902403A4649464046089BFFF7E5
:101A300091FA2046FFF79CF9012501E04FF0FF35B0
:101A4000284609B0BDE8F08F2DE9F0414FF00008BD
:101A50005E48006800287DD15D480068451C5C48F0
:101A60000560EDB95B480068006808B9012000E036
:101A7000002028B940F6C72257A15CA0FEF7C4FF9A
:101A8000544807685D480068524908605B48076031
:101A90005B480068401C5A490860FFF733FB00BFF1
:101AA00058480068854277D300BF4A4800680068FC
:101AB00008B9012000E0002020B14FF0FF3051496B
:101AC000086068E043480068C068C4686668B5425A
:101AD00002D24C4806605EE06069D4E902128A6076
:101AE000D4E902214A60211D42688A4201D1E1689D
:101AF0004160002262610168491E0160A06A98B1DC
:101B0000A06AD4E907128A60D4E907214A6004F187
:101B1000180142688A4201D1216A41600022A26212
:101B20000168491E016000BF94F82C100120884014
:101B300035490968084334490860E16A01EB8101CD
:101B4000324A02EB81014868A0608268E260211D90
:101B5000826800E032E051608160E16A01EB81015E
:101B60002A4A02EB81026261E16A01EB8101274AA4
:101B700052F82110491CE26A02EB8202234B43F81F
:101B800022102349E06A0968C96A88428DD34FF060
:101B900001088AE700E000BF1D480068C06A00EB4A
:101BA00080001A4951F82000012801D94FF001089E
:101BB0001848006808B14FF0010804E016480068B2
:101BC000401C154908604046BDE8F08174000020C3
:101BD0004C0000203C0000204672656552544F5373
:101BE0005C7461736B732E63000000004572726F4A
:101BF000723A25732C25640D0A0000004000002075
:101C000060000020680000205000002070010020CB
:101C1000380000205C0000205800002070B500242F
:101C200000265048006828B940F6B3024EA153A0E0
:101C3000FEF7EAFEFFF7F0FB4A480068401E4949FC
:101C400008600846006800287ED1504800680028D7
:101C50007AD05BE04E48C068C468A06AD4E9071235
:101C60008A60D4E907214A6004F1180142688A4277
:101C700001D1216A41600022A2620168491E01600F
:101C80006069D4E902128A60D4E902214A60211D08
:101C900042688A4201D1E1684160002262610168C4
:101CA000491E016094F82C100120884039490968C8
:101CB000084338490860E16A01EB8101364A02EBCA
:101CC00081014868A0608268E260211D82685160DD
:101CD0008160E16A01EB81012F4A02EB81026261BE
:101CE000E16A01EB81012C4A52F82110491CE26A99
:101CF00002EB8202284B43F822102849E06A096867
:101D0000C96A884202D3012025490860204800683A
:101D100008B9012000E0002000289BD00CB1FFF79B
:101D2000F1F92048056865B100BFFFF78DFE10B1DD
:101D300001201B4908606D1E002DF6D100201949B5
:101D400008601748006800E008E038B10126300755
:101D500015490860BFF34F8FBFF36F8FFFF79EFBEE
:101D6000304670BD740000204672656552544F5372
:101D70005C7461736B732E63000000004572726FB8
:101D8000723A25732C25640D0A00000048000020DB
:101D9000FC010020500000207001002038000020CD
:101DA0005C0000205800002004ED00E0CC1D00087D
:101DB00000000020A8000000280A0008741E000887
:101DC000A8000020902D0000380A00080000000044
:101DD00000000000000000000102030401020304EF
:101DE000060708090204060800A24A0400000000D1
:101DF00000000000010203040607080900000000BB
:101E000000000000000000000000000000000000D2
:101E100000000000000000000000000000000000C2
:101E200000000000000000000000000000000000B2
:101E3000000000000000000000000000040000009E
:101E40000000000000000000000000000000000092
:101E50000000000000000000000000000000000082
:101E600000000000AAAAAAAA0000000000000000CA
:041E7000000000006E
:04000005080000ED02
:00000001FF
