:020000040800F2
:100000006830002099010008550500080104000827
:100010005105000831020008070F00080000000029
:1000200000000000000000000000000001010008C6
:10003000350200080000000045010008110B00080F
:10004000B3010008B3010008B3010008B3010008C0
:10005000B3010008B3010008B3010008B3010008B0
:10006000B3010008B3010008B3010008B3010008A0
:10007000B3010008B3010008B3010008B301000890
:10008000B3010008B3010008B3010008B301000880
:10009000B3010008B3010008B3010008B301000870
:1000A000B3010008B3010008B3010008B301000860
:1000B000B3010008B3010008B3010008B301000850
:1000C000B3010008B3010008B3010008B301000840
:1000D000B3010008010C0008B3010008B3010008D7
:1000E000B3010008B3010008B3010008DFF80CD029
:1000F00000F08CF8004800475511000868300020D7
:10010000224B19680868B0E8F00F80F30988BFF344
:100110006F8F4FF0000080F311884EF00D0E704786
:100120000000000006480068006880F3088862B696
:1001300061B6BFF34F8FBFF36F8F00DF00BF00BF0B
:1001400008ED00E0EFF30980BFF36F8F0F4B1A68E3
:1001500020E9F00F106008B54FF0500080F31188CF
:10016000BFF34F8FBFF36F8F01F0EEFF4FF0000032
:1001700080F31188BDE8084019680868B0E8F00FFE
:1001800080F30988BFF36F8F704700BF48000020DD
:10019000EFF3058070470000064880470648004797
:1001A000FEE7FEE7FEE7FEE7FEE7FEE7FEE7FEE727
:1001B000FEE7FEE7A10B0008ED00000840EA01039E
:1001C0009B0703D009E008C9121F08C0042AFAD20D
:1001D00003E011F8013B00F8013B521EF9D27047D1
:1001E00030B50B46014600202022012409E021FA07
:1001F00002F59D4205D303FA02F5491B04FA02F504
:100200002844151EA2F10102F1DC30BD064C074D59
:1002100006E0E06840F0010394E8070098471034D6
:10022000AC42F6D3FFF766FFB0350008D0350008C2
:1002300000BFFEE770472DE9F04102460025002689
:10024000002000230024002791F803C00CF00F05C4
:1002500091F803C00CF0100CBCF1000F03D091F822
:1002600002C04CEA050591F800C0BCF1000F31D086
:10027000146800202BE04FF0010C0CFA00F3B1F8E9
:1002800000C00CEA03069E4220D183004FF00F0C01
:100290000CFA03F7BC4305FA03FC4CEA040491F89A
:1002A00003C0BCF1280F06D14FF0010C0CFA00FC82
:1002B000C2F814C00AE091F803C0BCF1480F05D1A0
:1002C0004FF0010C0CFA00FCC2F810C0401C0828CA
:1002D000D1D31460B1F800C0BCF1FF0F34DD546815
:1002E00000202EE000F1080C4FF0010808FA0CF392
:1002F000B1F800C00CEA03069E4221D183004FF002
:100300000F0C0CFA03F7BC4305FA03FC4CEA040497
:1003100091F803C0BCF1280F05D100F1080C08FAD0
:100320000CF8C2F8148091F803C0BCF1480F07D153
:1003300000F1080C4FF0010808FA0CF8C2F8108020
:10034000401C0828CED35460BDE8F081016170479D
:100350000AB1016100E0416170470000012421E021
:1003600011A20121032000F09DFA10A000F0E4FD8D
:100370004FF0FF311448006802F072F90446012C76
:1003800002D112A000F0D8FD16A000F0D5FD002388
:100390001A4619460C48006802F090F84FF4FA70BB
:1003A00001F0E0FCDCE7000047000000B8DFD3C547
:1003B000CFC8BCB6C8CECEF1BBF1C8A1BBA5B3E2D5
:1003C000C1BF0D0A0000000014000020B8DFD3C533
:1003D000CFC8BCB6C8CECEF1D5FDD4DAD4CBD0D000
:1003E0000D0A0000B8DFD3C5CFC8BCB6C8CECEF169
:1003F000CACDB7C5BBA5B3E2C1BF210D0A0D0A0026
:1004000000BFFEE708B501210C2000F07FFA202094
:10041000ADF8000010208DF8030003208DF80200D5
:1004200069460948FFF707FF20210748FFF78EFFBD
:100430002020ADF8000069460448FFF7FCFE2021AB
:100440000248FFF783FF08BD000C0140000801408F
:1004500001252FE018A20121032000F023FA17A0A4
:1004600000F06AFD4FF0FF311B48006802F0F8F819
:100470000546012D02D119A000F05EFD002408E020
:100480004FF080501B490860BFF34F8FBFF36F8F51
:10049000641C19488442F3D318A000F04DFD0023DA
:1004A0001A4619460C48006802F008F84FF4FA7032
:1004B00001F058FCCEE700004C000000B5CDD3C5DC
:1004C000CFC8BCB6C8CECEF1BBF1C8A1BBA5B3E2C4
:1004D000C1BF0D0A0000000014000020B5CDD3C537
:1004E000CFC8BCB6C8CECEF1D5FDD4DAD4CBD0D0EF
:1004F0000D0A000004ED00E040420F00B5CDD3C569
:10050000CFC8BCB6C8CECEF1CACDB7C5BBA5B3E285
:10051000C1BF210D0A0D0A000BE006A20121032034
:1005200000F0C0F904A000F007FD4FF4FA7001F0EC
:1005300019FCF2E74D000000D6D0D3C5CFC8BCB639
:10054000C8CECEF1D5FDD4DAD4CBD0D00D0A000080
:1005500000BFFEE77047000070B5002100230F22A6
:10056000C47804B3154C246804F4E064C4F5E06472
:10057000210AC1F10403CA40447804FA03F18478E3
:100580001440214309010E4C0678A155047804F06B
:100590001F050124AC4005786D11AD0005F1E02583
:1005A000C5F8004109E0047804F01F050124AC40BF
:1005B000044D0678761145F8264070BD0CED00E03C
:1005C00000E400E080E100E002490143024A1160DA
:1005D000704700000000FA050CED00E070B5002443
:1005E0000EE00021204600F0F0F8002504E0002095
:1005F00000F07CF9681CC5B2802DF8DB601CC4B229
:10060000082CEEDB70BD000008B50121082000F0C9
:100610007DF914208DF8030003208DF802004FF4BB
:100620008070ADF8000069460A48FFF704FE4FF4F9
:100630000070ADF8000069460648FFF7FCFD012296
:1006400011020448FFF784FE012251020148FFF71E
:100650007FFE08BD000C014070B50546002415E082
:100660008020204100EA05024FF400710E48FFF798
:100670006FFE012211020C48FFF76AFE00224FF4C0
:1006800080710948FFF764FE601CC4B2082CE7DBE8
:10069000012211020448FFF75BFE00224FF4807133
:1006A0000148FFF755FE70BD000C014010B5012256
:1006B00051020A48FFF74CFE012211020748FFF7DA
:1006C00047FE00224FF400710448FFF741FE00226C
:1006D0004FF480710148FFF73BFE10BD000C014054
:1006E00010B500224FF400710648FFF731FE0122D9
:1006F00011020448FFF72CFE012251020148FFF7C6
:1007000027FE10BD000C014070B5002406E0002556
:1007100000E06D1CB5F57A7FFBD3641CB4F57A7FDD
:10072000F5D3FFF771FFAE2000F0D0F8D52000F030
:10073000CDF8802000F0CAF8A82000F0C7F83F20CC
:1007400000F0C4F8D32000F0C1F8002000F0BEF89B
:10075000402000F0BBF8A12000F0B8F8C82000F05D
:10076000B5F8DA2000F0B2F8122000F0AFF88120DE
:1007700000F0ACF8CF2000F0A9F8D92000F0A6F8DE
:10078000F12000F0A3F8DB2000F0A0F8302000F00A
:100790009DF8A42000F09AF8A62000F097F88D208C
:1007A00000F094F8142000F091F8AF2000F08EF8DB
:1007B000FFF714FF70BD10B50246012000E0504362
:1007C0000B1EA1F10101FAD110BD70B505460C4612
:1007D00045F0B00000F07AF8102141EA141000F062
:1007E00075F804F00F0000F071F870BD2DE9F041CC
:1007F00005460E461746721ED206110E6A1E520696
:10080000100EFFF7E2FF002409E0A7F12001134AD0
:1008100002EB0111085D00F069F8601CC4B2082CFD
:10082000F3DB721ED206110E6A1E012303EB420295
:10083000D0B2FFF7CAFF00240BE0A7F12001074A5E
:1008400002EB011204F10801505C00F04FF8601C4B
:10085000C4B2082CF1DBBDE8F0810000C02F000815
:100860002DE9F04780460E4617461D46002415E048
:10087000281B411E0A20FFF79EFFB7FBF0F00A215C
:10088000B0FBF1F201FB120000F130093019C1B2E6
:100890004A464046FFF7AAFF601CC4B2AC42E7DB01
:1008A000BDE8F0872DE9F04107460E4615460024C5
:1008B00007E02A5D3019C1B23846FFF797FF601C88
:1008C000C4B2285D0028F4D1BDE8F08110B504461B
:1008D000FFF7ECFE7820FFF7BFFE0020FFF7BCFE1D
:1008E0002046FFF7B9FEFFF7FBFE10BD10B504462A
:1008F000FFF7DCFE7820FFF7AFFE4020FFF7ACFEED
:100900002046FFF7A9FEFFF7EBFE10BD29B1064A0E
:1009100092690243044B9A6104E0034A926982435C
:10092000014B9A61704700000010024030B5002171
:100930000022002400232D4D6D6805F00C0121B12B
:10094000042905D0082923D105E0294D056022E0BE
:10095000274D05601FE0254D6D6805F47012234D8D
:100960006D6805F48034022505EB92421CB9214DD7
:10097000554305600BE01D4D6D6805F400351DB154
:100980001C4D5543056002E0194D5543056002E0DA
:10099000174D056000BF00BF144D6D6805F0F001F4
:1009A0000909154D6B5C0568DD4045600F4D6D68AC
:1009B00005F4E061090A104D6B5C4568DD40856017
:1009C0000A4D6D6805F46051C90A0B4D6B5C4568B2
:1009D000DD40C560054D6D6805F44041890B074D4C
:1009E0006B5CC568B5FBF3F5056130BD00100240D6
:1009F00000127A0000093D001800002028000020A5
:100A000010B500F001F810BD0CB500200190009069
:100A10003348006840F480303149086000BF3048F6
:100A2000006800F4003000900198401C019000988C
:100A300018B90198B0F5A06FF1D12948006800F409
:100A4000003010B10120009001E0002000900098DB
:100A5000012843D12348006840F010002149086074
:100A60000846006820F0030008600846006840F06F
:100A7000020008601A484068194948600846406802
:100A800048600846406840F4806048600846406816
:100A900020F47C1048600846406840F4E810486044
:100AA0000846006840F08070086000BF0C4800688D
:100AB00000F000700028F9D00948406820F00300D9
:100AC000074948600846406840F00200486000BF9F
:100AD0000348406800F00C000828F9D10CBD000064
:100AE0000010024000200240042808D14FF0E0210D
:100AF000096941F004014FF0E022116107E04FF075
:100B0000E021096921F004014FF0E02211617047F2
:100B100010B500BF502080F31188BFF34F8FBFF393
:100B20006F8F00BF01F006FF18B14FF080500449ED
:100B3000086000BF002080F3118800BF10BD0000D6
:100B400004ED00E070B505460420FFF7CDFF104826
:100B500000681049B0FBF1F00F4908700C480068BC
:100B60000C49B0FBF1F44FF47A70444301200B4977
:100B700008804FF0E020006940F002004FF0E021D3
:100B8000086108464461006940F00100086170BDD9
:100B90002C00002040420F004000002042000020B6
:100BA00010B51348006840F001001149086008467C
:100BB0004068104908400E494860084600680E49E0
:100BC00008400B4908600846006820F4802008604F
:100BD0000846406820F4FE0048604FF41F0088601B
:100BE000FFF70EFF4FF000600449086010BD0000E1
:100BF000001002400000FFF8FFFFF6FE08ED00E0E5
:100C000010B540F225511D4800F0B8F810B31B484C
:100C100000F070F9C4B21A48008800F40040C8B966
:100C20001748008800F4804060B10A2C03D00020EF
:100C30001349088020E01248008840F40040104921
:100C4000088019E00D2C06D10D48008840F4804042
:100C50000B49088010E00A480088C0F30D000949DC
:100C60000C5407480088401C054908800846008845
:100C7000C72801DD0020088010BD000000380140B9
:100C800044000020B800002010B586B004460121C1
:100C90000420FFF73BFE01218803FFF737FE4FF4E6
:100CA0000070ADF8140003208DF8160018208DF8A0
:100CB000170005A91E48FFF7BEFA4FF48060ADF893
:100CC000140004208DF8170005A91948FFF7B3FA9E
:100CD00001940020ADF80800ADF80A00ADF80C0052
:100CE000ADF810000C20ADF80E0001A9114800F07D
:100CF00095F801210F4800F028F840210D4800F038
:100D00001BF8012240F225510A4800F061F8252025
:100D10008DF8000003208DF801008DF802000120FD
:100D20008DF803006846FFF717FC06B010BD000001
:100D3000000801400038014001F40072B2F5007F64
:100D400000D100BFCA430280704721B1828942F4BA
:100D50000052828104E082894DF6FF731A4082813D
:100D6000704702460020B1F5007F00D100BF138814
:100D70000B400BB1012000E00020704770B5024627
:100D8000002400230025002040F66A16B14200D15D
:100D900000BFC1F3421501F01F03012606FA03F359
:100DA000012D02D19689334006E0022D02D1168A28
:100DB000334001E0968A33400C12012606FA04F40F
:100DC0001688344013B10CB1012000E0002070BD42
:100DD000F0B50346002400260025002040F66A17DF
:100DE000B94200D100BF1846C1F3421401F01F06FA
:100DF000012707FA06F5012C01D10C3004E0022C82
:100E000001D1103000E014301AB107682F43076099
:100E100002E00768AF430760F0BD00002DE9F0472E
:100E200086B005460E460024A24600BFA146002714
:100E3000B08900B100BF2F462C8A4CF6FF700440E9
:100E4000F08804432C82AC894EF6F3100440B0883D
:100E500031890843718908430443AC81AC8A4FF659
:100E6000FF400440B0890443AC8201A8FFF75EFD57
:100E70001F48874202D1DDF810A001E0DDF80CA088
:100E8000A88900F4004040B10AEBCA0000EB0A1048
:100E900031684900B0FBF1F807E00AEBCA0000EB4B
:100EA0000A1031688900B0FBF1F86420B8FBF0F05B
:100EB00004012009642101FB1089A88900F4004085
:100EC00040B1322000EBC900B0FBF1F000F00700A8
:100ED000044308E0322000EB09106421B0FBF1F07C
:100EE00000F00F0004432C8106B0BDE8F08700003D
:100EF0000038014001468888C0F308007047C1F3FC
:100F000008028280704700BFFEE7000008B501219B
:100F10000820FFF7FBFC4FF44060ADF800002820EC
:100F20008DF8030003208DF8020069460148FFF7A1
:100F300082F908BD000C01400FB4054B10B503A9A0
:100F4000044A029800F018F810BC5DF814FB000089
:100F500031110008B400002002E008C8121F08C1C7
:100F6000002AFAD170477047002001E001C1121F2A
:100F7000002AFBD1704700002DE9FF4F8BB09A4645
:100F80000F460546002606E025280BD052460D994F
:100F900090476D1C761C28780028F5D10FB030469C
:100FA000BDE8F08F0024A0460122604900E0044320
:100FB00015F8013F203B02FA03F00842F7D12878E8
:100FC0002E2817D115F8010F44F004042A280ED05A
:100FD0006FF02F022878A0F1300109290AD808EB18
:100FE000880102EB410100EB01086D1CF2E757F8A4
:100FF000048B6D1C287869283ED006DC0028CDD0F3
:1010000063280BD0642804D136E0732810D07528EB
:101010004BD052460D999047761C85E017F8040B8B
:101020008DF8000000208DF80100E946012003E062
:1010300057F8049B4FF0FF3061074FF0000401D4D4
:101040000AE0641C44450DDA8442FADB19F8041006
:101050000029F6D106E0641C8442FCDB19F8041078
:101060000029F8D1264404E019F8010B52460D99E5
:101070009047641EF8D257E001CF4FF00A0B0028CA
:1010800002DA40422D2102E0210504D52B218DF802
:101090002410012103E0E10705D02021F7E70DF13D
:1010A000200908910CE00021F9E701CF4FF00A0B6D
:1010B000F9E75946FFF794F801F1300209F8012DDC
:1010C0000028F6D1ADEB090000F1200B600701D438
:1010D0004FF00108D84502DDA8EB0B0000E000202E
:1010E0008046002406E009A85246005D0D9990470D
:1010F000641C761C08988442F5DB04E030205246DC
:101100000D999047761CB8F10001A8F10108F5DCB3
:1011100005E019F8010B52460D999047761CBBF17A
:101120000001ABF1010BF4DC6D1C34E70928010070
:1011300070B504460D46E1B20548FFF7E0FE00BF7A
:1011400080210348FFF70DFE0028F9D0204670BD2E
:10115000003801401CB500F0EFFF4820FFF7F2FC1B
:101160004FF44070FFF730FA4FF41650FFF78CFD44
:10117000FFF7CCFEFFF746F909A0FFF7DDFE01F00F
:1011800057FE0D48012100238022CDE900100BA15C
:101190000D4801F08FFB00F079FF00201CBD00001E
:1011A0004672656552544F53BBA5B3E2C1BFCAB581
:1011B000D1E90D0A00000000000000207374617284
:1011C000745F7461736B0000491A00080024FFF714
:1011D0009BFA09A201210846FFF764FB0AE00A23F3
:1011E000224601210220FFF73BFB4FF47A7000F00A
:1011F000B9FD641CF3E700004672656552544F5315
:10120000000000002DE9F04105460E46264807681B
:1012100026480068001D00F075FC50B9234800689E
:1012200090F82C100120884021490968814320480A
:101230000160681CD8B9D6B11E4948681B490968C5
:1012400088601A4982680968CA6018490968091DD6
:101250008268516015490968091D8160154A134962
:1012600009684A6111460968491C11601AE07C1935
:101270000E4800684460BC4207D20C480168091D52
:101280000D48006800F062FC0CE008480168091D88
:101290000A48006800F05AFC09480068844201D2FC
:1012A00007480460BDE8F0815C0000204800002091
:1012B0006000002050040020500000204C0000205E
:1012C0007800002010B5044600F066FC2F48006846
:1012D000401C2E4908602E48006840B92C48046024
:1012E0000846006801280DD100F0BCF90AE0294841
:1012F000006838B926480068C06AE16A884201D8A7
:101300002348046024480068401C2349086094F87E
:101310002C10012088402149096808431F490860B2
:10132000E16A01EB81011E4A02EB81014868A0607D
:101330008268E260211D826851608160E16A01EB90
:101340008101174A02EB81026261E16A01EB8101CE
:10135000134A52F82110491CE26A02EB8202104B38
:1013600043F8221000F05AFC0A48006868B10848A7
:101370000068C06AE16A884207D24FF0805009498C
:101380000860BFF34F8FBFF36F8F10BD5800002070
:10139000480000206400002074000020600000204D
:1013A0008001002004ED00E010B516E000F0F4FB31
:1013B0000C48C068C468201D00F0A4FB0A480068FF
:1013C000401E0949086009480068401E0749086036
:1013D00000F024FC204600F04AF804480068002889
:1013E000E4D110BD3C04002058000020540000202F
:1013F0002DE9F04104460F4615464FF00008A66B54
:10140000206C48B9206800282CD1A06801F07CFB32
:1014100080460020A06025E07DB93946226C6068D6
:10142000FEF7CCFE216C606808446060D4E90101DD
:10143000884217D32068606014E03946226CE06867
:10144000FEF7BCFE216CE068411AE1602168E068AB
:10145000884203D2216CA068411AE160022D01D1BB
:1014600006B1761E701CA0634046BDE8F08110B541
:101470000446206B00F008FC204600F005FC10BD7F
:1014800001464A6A22B10A6B1268C2F1200000E0EC
:101490000020704730B54FF42053174800F0070480
:1014A0002CB1C01D20F00700134C041B1B1B02466F
:1014B000124C22600024114D6C60D018083820F0C6
:1014C00007000F4C206000240D4D2D686C600C4D02
:1014D0002D682C601146441A4C60094C24680C603D
:1014E000084D4C682C60084D4C682C604FF000444F
:1014F000064D2C6030BD00006404002088000020F0
:10150000900000209800002094000020A4000020FB
:1015100000BFFFF749FF064800680128F9D94FF0DE
:10152000805004490860BFF34F8FBFF36F8FF0E71F
:101530008001002004ED00E010B5044654B1002005
:10154000A06020600021E16000231A461946204671
:1015500000F0B4FF10BD2DE9F04106460D461746D8
:101560009846069C0DB9246000E02760E663256478
:101570000121204600F02CFFBDE8F0812DE9FF5F3E
:1015800081460F469246DDE90E6B109CAAF10100E0
:10159000216B01EB800828F0070808F0070008B964
:1015A000012000E0002028B940F2613224A129A0E6
:1015B000FFF7C2FC87B1002507E0795D04F1340034
:1015C0004155785D00B902E06D1C102DF5D300BFC8
:1015D00000214320015502E0002084F83400202E31
:1015E00001D2012000E0002028B94FF4667214A156
:1015F00018A0FFF7A1FC202E00D31F26E662666428
:101600000020A064201D00F09EFA04F1180000F0F4
:101610009AFA2461C6F12000A06164620020E064AF
:1016200084F8500049464046039A00F0FBF92060D8
:10163000BBF1000F01D0CBF80040BDE8FF9F0000D8
:101640004672656552544F535C7461736B732E63BD
:10165000000000004572726F723A25732C25640DEC
:101660000A00000010B5002407E004EB84010F4AD3
:1016700002EB810000F05AFA641C202CF5D30C48D0
:1016800000F054FA0B4800F051FA0B4800F04EFA03
:101690000A4800F04BFA0A4800F048FA04480949A1
:1016A000086004480849086010BD0000800100205F
:1016B0000004002014040020280400203C04002022
:1016C000500400204C0000205000002010B50146BE
:1016D000164800E0006803688B42FBD3024643686B
:1016E00013448B4204D143684C6823444360014651
:1016F0000A464B6813440468A34211D10C4C03689A
:101700002468A34208D04B680468646823444B6093
:1017100003681B680B6005E0054B1B680B6001E06C
:1017200003680B60884200D0016010BD8800002073
:101730009000002070B5054600F02EFAA86B08B99D
:10174000012400E0002400F069FA204670BD70B565
:10175000054600F021FAA86BE96B884201D101240B
:1017600000E0002400F05AFA204670BD09480068E5
:10177000006808B9012000E0002020B14FF0FF30E0
:101780000549086005E003480068C0680068024930
:10179000086070474C000020780000200B4800686B
:1017A000401C08B9012000E0002020B9CE2208A189
:1017B00011A0FFF7C1FB00BF502080F31188BFF3D9
:1017C0004F8FBFF36F8F00BF00BFFEE7A800002060
:1017D0004672656552544F535C706F727461626CEF
:1017E000655C525644535C41524D5F434D335C70CF
:1017F0006F72742E630000004572726F723A257327
:101800002C25640D0A00000070B5044600F0C4F9F0
:1018100094F9455010E0606A08B9012000E000200A
:1018200038B904F1240001F065FA18B100F06AFB40
:1018300000E003E0681E45B2002DECDC00BFFF2095
:1018400084F8450000F0EAF900F0A6F994F9445054
:1018500010E0206908B9012000E0002048B904F137
:10186000100001F047FA08B100F04CFB681E45B2C9
:1018700000E001E0002DECDC00BFFF2084F8440014
:1018800000F0CCF970BD00002DE9F04104464FF0A6
:10189000000800F051FC4848006808B9FFF7FAFD5D
:1018A000464800682040002873D114B304F10800B2
:1018B000A0421ED9083404F00700D8B104F0070094
:1018C000C0F108002044A04211D904F00700C0F183
:1018D0000800044404F0070008B9012000E00020DB
:1018E00040B99C2236A13FA0FFF726FB02E000246E
:1018F00000E00024002C4CD03E480068844248D8C8
:101900003D4E3046056801E02E462D686868A042CD
:1019100002D228680028F7D127480068854238D0CD
:10192000306800F10808286830606868001B1028DB
:1019300013D92F1907F0070008B9012000E0002093
:1019400020B9CF221EA127A0FFF7F6FA6868001B76
:1019500078606C603846FFF7B9FE26496868096808
:10196000081A244908600846006824490968884222
:1019700003D2204800682149086010496868096856
:1019800008436860002028601D480068401C1C490E
:10199000086001F04DFA08F0070008B9012000E0E6
:1019A000002028B94FF4887205A10EA0FFF7C4FAF1
:1019B0004046BDE8F081000090000020A400002017
:1019C0004672656552544F535C706F727461626CFD
:1019D000655C4D656D4D616E675C686561705F3417
:1019E0002E6300004572726F723A25732C25640DC8
:1019F0000A000000940000208800002098000020C9
:101A00009C0000200648006830B10549096801F1D2
:101A10004800896C491C016001480068704700005B
:101A200048000020001F4FF080730360001F21F06A
:101A300001030360001F034B036014380260203869
:101A4000704700009D1700081CB5044600F0A4F87C
:101A5000012000F06BFC1849086018481E21002383
:101A60003222CDE9001016A1184800F023FF1848D3
:101A7000022100233222CDE9001016A1174800F000
:101A800019FF1748032100233222CDE9001015A1C8
:101A9000164800F00FFF1648042100233222CDE93A
:101AA000001014A1154800F005FF1548006800F06B
:101AB00093F900F0B3F81CBD1400002004000020CE
:101AC0006F6C65645F7461736B000000CD1100087A
:101AD000080000204C5F7461736B00005104000823
:101AE0000C0000204D5F7461736B00001905000845
:101AF00010000020485F7461736B00005D030008F4
:101B00000000002001460A69D1E901309860D1E95E
:101B1000010358605068884201D1886850600020F5
:101B200008611068401E10601068704700F10801DD
:101B300041604FF0FF31816000F10801C160016137
:101B400000210160704700210161704710B5024615
:101B50000B685C1C0CB9106907E002F1080000E09A
:101B60004068446824689C42FAD944684C604C68D8
:101B7000A160886041600A611468641C146010BD33
:101B800042684A6093688B6093685960916008610D
:101B900003685B1C0360704710B500BF502080F3E2
:101BA0001188BFF34F8FBFF36F8F00BF0B480068E2
:101BB000401C0A4908600846006801280DD1084801
:101BC0000068C0B208B9012000E0002028B940F246
:101BD000731204A10DA0FFF7AFF910BDA8000020FB
:101BE00004ED00E04672656552544F535C706F72AD
:101BF0007461626C655C525644535C41524D5F4364
:101C00004D335C706F72742E630000004572726F0A
:101C1000723A25732C25640D0A00000010B50B489C
:101C2000006828B94FF4BD7209A113A0FFF784F929
:101C300006480068401E054908600846006820B94B
:101C4000002080F3118800BF00BF10BDA800002055
:101C50004672656552544F535C706F727461626C6A
:101C6000655C525644535C41524D5F434D335C704A
:101C70006F72742E630000004572726F723A2573A2
:101C80002C25640D0A00000070B506463546002E6E
:101C90003AD0083D2C461D4960680968084008B1E3
:101CA000012000E0002028B94FF4927218A121A071
:101CB000FFF742F9206808B9012000E0002028B9A8
:101CC00040F2251212A11BA0FFF736F90F496068F8
:101CD00009680840C0B12068B0B90C49606809685B
:101CE0008843606000F028FA164960680968084473
:101CF000144908602046FFF7E9FC13480068401CBF
:101D00001149086001F094F870BD0000A4000020A3
:101D10004672656552544F535C706F727461626CA9
:101D2000655C4D656D4D616E675C686561705F34C3
:101D30002E6300004572726F723A25732C25640D74
:101D40000A00000094000020A000002000204FF0B6
:101D5000E0210861886102484861072008617047F6
:101D60003F19010070B504460025ACB10F4800686A
:101D700008B9012000E0002028B940F24A520CA125
:101D800010A0FFF7D9F800F0D7F900212046FFF79F
:101D900039FA01F04DF805463DB94FF080500D4934
:101DA0000860BFF34F8FBFF36F8F70BD84000020BA
:101DB0004672656552544F535C7461736B732E6346
:101DC000000000004572726F723A25732C25640D75
:101DD0000A00000004ED00E070B50546FFF7DCFEE8
:101DE00015B92F48006800E028460446201DFFF77B
:101DF00089FE78B9E06A00EB80002A4951F820009A
:101E000040B994F82C100120884027490968814383
:101E100025480160A06A18B104F11800FFF772FEAE
:101E200022480068401C214908601D48006884421F
:101E300009D1211D1E48FFF7A3FE1E480068401C63
:101E40001C49086006E01C480068401E1A490860EA
:101E5000FFF78CFCFFF7E2FE11480068844202D0D5
:101E60002046FFF704FB15480068C0B10C48006825
:101E7000844214D11248006808B9012000E0002013
:101E800028B940F2DD420FA113A0FFF755F84FF03B
:101E9000805015490860BFF34F8FBFF36F8F70BD3F
:101EA0004800002080010020600000207400002015
:101EB0003C04002054000020580000206400002052
:101EC000840000204672656552544F535C74617300
:101ED0006B732E63000000004572726F723A2573B7
:101EE0002C25640D0A00000004ED00E00349096898
:101EF00001600349096841607047000070000020DC
:101F00005C00002001200149086070476C0000203F
:101F100070B504460D462CB940F61D4207A10CA031
:101F2000FFF70AF80E48016818312046FFF70EFE49
:101F300001212846FFF766F970BD0000467265650D
:101F400052544F535C7461736B732E630000000036
:101F50004572726F723A25732C25640D0A000000D9
:101F6000480000202DE9F04706460F4634464FF062
:101F70000109002E70D0A06C28B94FF4855237A10A
:101F80003BA0FEF7D9FF606CB84201D23D4600E0AD
:101F9000656CE06AA8425FD0A06C01285CD138482B
:101FA0000068844201D0012000E0002028B941F2FD
:101FB000BB022AA12EA0FEF7BFFFD4F82C80E56259
:101FC000A06900F0004010B9C5F12000A06108EB45
:101FD00088012C4A02EB81016069884201D101200D
:101FE00000E00020C0B3201DFFF78CFD40B994F83D
:101FF0002C1001208840244909688143224801604F
:1020000094F82C10012088401F49096808431E4994
:102010000860E16A01EB81011A4A02EB810148681C
:10202000A0608268E260211D826851608160E16A7F
:1020300001EB8101134A02EB81026261E16A01EB6B
:102040008101104A52F82110491CE26A02EB820217
:102050000C4B43F8221000BFBDE8F087467265655F
:1020600052544F535C7461736B732E630000000015
:102070004572726F723A25732C25640D0A000000B8
:102080004800002080010020600000201CB5194895
:1020900000210B468022CDE9001017A1184800F05E
:1020A00009FC0446012C15D100BF502080F3118893
:1020B000BFF34F8FBFF36F8F00BF4FF0FF30114959
:1020C000086001201049086000201049086000F0F5
:1020D0008FF80BE0601C08B1012000E0002028B957
:1020E00040F641020AA10FA0FEF726FF1148006842
:1020F0001CBD00007C00002049444C45000000004D
:102100001115000878000020640000205C00002009
:102110004672656552544F535C7461736B732E63E2
:10212000000000004572726F723A25732C25640D11
:102130000A0000008000002002480068401C01499D
:10214000086070478400002010B51B48006818B173
:1021500001201A4908602DE000201849086018483D
:102160000068B0FA80F0C0F11F0404EB8400154948
:1021700051F8200008B1012000E0002028B940F605
:10218000034211A115A0FEF7D7FE04EB84010D4A0E
:1021900002EB810041684968416000F10801426832
:1021A0008A4202D14168496841604168C9680F4A62
:1021B000116000BF10BD0000840000206C000020F2
:1021C00060000020800100204672656552544F5324
:1021D0005C7461736B732E63000000004572726F54
:1021E000723A25732C25640D0A0000004800002077
:1021F0001CB53B4C204600780190FF20214608701A
:102200000846007800909DF8000000F0F0009DF86E
:102210000010884201D1012000E0002028B940F2DE
:102220001F1230A139A0FEF787FE9DF8000000F0D4
:1022300050003A49087007203949086009E03848D9
:102240000068401E364908609DF800004006000EF8
:1022500000909DF8000000F080008028EFD030480A
:102260000068C0F10700042801D1012000E000202F
:1022700028B940F233121BA124A0FEF75DFE2848C6
:102280000068C0F10700042801D1012000E000200F
:1022900028B94FF49E7213A11CA0FEF74DFE2048F2
:1022A000006800021E4908600846008800F4E060EB
:1022B00008600B49019808701A48006840F47000E3
:1022C000184908600846006840F070400860FFF751
:1022D0003DFD002014490860FDF724FF00201CBDCF
:1022E00000E400E04672656552544F535C706F72B3
:1022F0007461626C655C525644535C41524D5F435D
:102300004D335C706F72742E630000004572726F03
:10231000723A25732C25640D0A000000AC000020E1
:10232000B000002020ED00E0A80000202DE9F041E1
:1023300004460126002722460021012000F008F86B
:1023400005462846FFF7F8F82846BDE8F08100006A
:102350002DE9F84305460E4617460024E5B1601EF8
:10236000B0FBF5F0B04217D305FB06F010F1490FB2
:1023700012D805FB06F909F14800FFF785FA044673
:102380008CB1A04608F148083B46424631462846F3
:102390000094FFF7E0F806E02CB94FF4E37203A1D4
:1023A00007A0FEF7C9FD2046BDE8F88346726565C3
:1023B00052544F535C71756575652E6300000000C3
:1023C0004572726F723A25732C25640D0A00000065
:1023D0002DE9F04105460E4601272C462CB94FF455
:1023E00088722CA130A0FEF7A7FD002C42D0E06B34
:1023F00000283FD04FF0FF31E06BB1FBF0F0216CD3
:10240000884237D3FFF7C8FBD4E90F12206801FBDD
:102410000200A0600020A06320686060E06B401EA6
:10242000226C216800FB0211E160FF2084F8440067
:1024300084F845009EB9206908B9012000E0002019
:10244000A8B904F1100000F055FC80B14FF08050A5
:1024500019490860BFF34F8FBFF36F8F07E004F196
:102460001000FFF763FB04F12400FFF75FFBFFF7A9
:10247000D5FB00E000270FB1012000E0002028B9C3
:1024800040F2451203A108A0FEF756FD3846BDE80C
:10249000F08100004672656552544F535C7175655A
:1024A00075652E63000000004572726F723A2573E5
:1024B0002C25640D0A00000004ED00E02DE9FF4327
:1024C00083B0064688461D464FF0000934462CB9B5
:1024D00040F22E3258A15DA0FEF72EFDB8F1000F9C
:1024E00001D1206C08B9012000E0002028B940F299
:1024F0002F3251A155A0FEF71FFD022D02D1E06B36
:10250000012801D1012000E0002028B94FF44C72CD
:1025100049A14EA0FEF710FD00F0FCF908B905989E
:1025200008B9012000E0002028B940F2333242A16E
:1025300046A0FEF701FD00BFFFF72EFBA06BE16B8D
:10254000884201D3022D28D12A4641462046FEF773
:102550004FFF0746606A08B9012000E0002068B913
:1025600004F1240000F0C6FB88B14FF080503B49D5
:102570000860BFF34F8FBFF36F8F08E03FB14FF09C
:10258000805036490860BFF34F8FBFF36F8FFFF75E
:1025900045FB012007B0BDE8F083059818B9FFF7A7
:1025A0003DFB0020F6E7B9F1000F04D101A8FFF7C9
:1025B0009DFC4FF00109FFF731FBFFF7BDFDFFF771
:1025C000EBFA94F94400401C10B9002084F8440050
:1025D00094F94500401C10B9002084F84500FFF72D
:1025E0001DFB05A901A800F015F9F0B92046FFF779
:1025F000AEF8A0B104F110000599FFF789FC204660
:10260000FFF702F900F014FC002895D14FF080503C
:1026100012490860BFF34F8FBFF36F8F8CE72046DE
:10262000FFF7F2F800F004FC86E72046FFF7ECF82D
:1026300000F0FEFB0020ADE74672656552544F5333
:102640005C71756575652E63000000004572726FE0
:10265000723A25732C25640D0A00000004ED00E099
:102660002DE9F34182B005464FF000082C460026C4
:102670002CB940F2E3525DA161A0FEF75DFC206C35
:1026800008B9012000E0002028B940F2E75257A124
:102690005BA0FEF751FC00F03DF908B9039808B9BA
:1026A000012000E0002028B940F2EC524FA154A0D4
:1026B000FEF742FC00BFFFF76FFAA76BFFB1781E71
:1026C000A063206810B9FFF79DF9A060206908B9E0
:1026D000012000E0002060B904F1100000F00AFBC6
:1026E00038B14FF080504A490860BFF34F8FBFF3B5
:1026F0006F8FFFF793FA012004B0BDE8F0810398D3
:1027000070B90EB9012000E0002028B940F2326211
:1027100036A13BA0FEF710FCFFF780FA0020EBE7A4
:10272000B8F1000F04D16846FFF7E0FB4FF0010855
:10273000FFF774FAFFF700FDFFF72EFA94F9440053
:10274000401C10B9002084F8440094F94500401C56
:1027500010B9002084F84500FFF760FA03A9684625
:1027600000F058F840BB2046FEF7E4FFF0B12068C7
:1027700038B9FFF711FAA06800F046FA0646FFF7ED
:102780004DFA04F124000399FFF7C2FB2046FFF73E
:102790003BF800F04DFB00288DD14FF080501C49D4
:1027A0000860BFF34F8FBFF36F8F84E72046FFF7BA
:1027B0002BF800F03DFB7EE72046FFF725F800F000
:1027C00037FB2046FEF7B6FF0028EED05EB1FFF7DC
:1027D000E3F92046FEF754FE07463946A068FFF7A6
:1027E000C1FBFFF71BFA002086E700004672656513
:1027F00052544F535C71756575652E63000000007F
:102800004572726F723A25732C25640D0A00000020
:1028100004ED00E070B505460C462DB940F6FE42C9
:1028200019A11EA0FEF788FB2CB940F6FF4216A1A5
:102830001AA0FEF781FBFFF7AFF91C480368686830
:102840001A1A2068401C08B9002619E0184928689F
:102850000968884206D06868984203D8012600209B
:1028600020600DE02068904207D92068801A20601F
:102870002846FFF73BFB002602E0002020600126EF
:10288000FFF7CCF9304670BD4672656552544F5320
:102890005C7461736B732E63000000004572726F8D
:1028A000723A25732C25640D0A0000005C0000209C
:1028B000700000202DE9FF4F85B0804689461746FD
:1028C000DDE912ABB800FEF7DFFF064656B1542033
:1028D000FEF7DAFF04460CB1266304E03046FFF74A
:1028E000D3F900E000247CB10020CDE900ABCDE9B4
:1028F00002403A4649464046089BFEF73FFE2046C6
:10290000FEF7E0FC012501E04FF0FF35284609B055
:10291000BDE8F08F0549096809B9012005E00449BF
:10292000096809B9022000E0002070476400002017
:10293000840000202DE9F0414FF000085E48006857
:1029400000287DD15D480068451C5C480560EDB9F4
:102950005B480068006808B9012000E0002028B941
:1029600040F6C82257A15CA0FEF7E6FA5448076873
:102970005D480068524908605B4807605B48006832
:10298000401C5A490860FEF7F1FE00BF5848006835
:10299000854277D300BF4A480068006808B9012023
:1029A00000E0002020B14FF0FF305149086068E09E
:1029B00043480068C068C4686668B54202D24C48A3
:1029C00006605EE06069D4E902128A60D4E90221FF
:1029D0004A60211D42688A4201D1E16841600022BB
:1029E00062610168491E0160A06A98B1A06AD4E9D9
:1029F00007128A60D4E907214A6004F1180142688D
:102A00008A4201D1216A41600022A2620168491E06
:102A1000016000BF94F82C100120884035490968F6
:102A2000084334490860E16A01EB8101324A02EB54
:102A300081014868A0608268E260211D826800E030
:102A400032E051608160E16A01EB81012A4A02EBC8
:102A500081026261E16A01EB8101274A52F821108B
:102A6000491CE26A02EB8202234B43F822102349FD
:102A7000E06A0968C96A88428DD34FF001088AE785
:102A800000E000BF1D480068C06A00EB80001A49E2
:102A900051F82000012801D94FF0010818480068BA
:102AA00008B14FF0010804E016480068401C1549C1
:102AB00008604046BDE8F081840000205C000020F2
:102AC0004C0000204672656552544F535C7461732C
:102AD0006B732E63000000004572726F723A2573AB
:102AE0002C25640D0A00000050000020700000201A
:102AF00078000020600000208001002048000020B5
:102B00006C0000206800002070B505462C460026A9
:102B1000002D5ED030480068844201D1012000E0E1
:102B2000002028B941F250022CA131A0FEF704FA8E
:102B3000A06C28B941F2510228A12DA0FEF7FCF9A2
:102B4000A06C401EA064616CE06A884241D0A06C19
:102B500000283ED1201DFEF7D5FF40B994F82C1077
:102B60000120884026490968814325480160606C3E
:102B7000E062E06AC0F12000A06194F82C1001200E
:102B800088401F49096808431D490860E16A01EB54
:102B900081011C4A02EB81014868A0608268E26002
:102BA000211D826851608160E16A01EB8101154A53
:102BB00002EB81026261E16A01EB8101114A52F884
:102BC0002110491CE26A02EB82020E4B43F82210EC
:102BD0000126304670BD0000480000204672656541
:102BE00052544F535C7461736B732E63000000008A
:102BF0004572726F723A25732C25640D0A0000002D
:102C0000600000208001002070B505462C4600269B
:102C1000002D67D03449E06A0968C96A88425AD2EF
:102C2000A06900F0004028B92F480068C06AC0F1D0
:102C30002000A061E16A01EB81012C4A02EB8101D5
:102C40006069884201D1012000E00020E0B3201D2E
:102C5000FEF758FF40B994F82C1001208840244911
:102C600009688143224801601F480068C06AE06229
:102C700094F82C10012088401D49096808431C491C
:102C80000860E16A01EB8101184A02EB81014868A2
:102C9000A0608268E260211D826851608160E16A03
:102CA00001EB8101114A02EB81026261E16A01EBF1
:102CB00081010E4A52F82110491CE26A02EB82029D
:102CC0000A4B43F8221004E0FFE707480068C06A97
:102CD000E062012606E00449606C0968C96A88421E
:102CE00000D20126304670BD48000020800100203F
:102CF0006000002070B50646F068C4682CB940F644
:102D000083423CA140A0FEF717F9A06AD4E907125C
:102D10008A60D4E907214A6004F1180142688A42B6
:102D200001D1216A41600022A2620168491E01604E
:102D30003948006800283DD16069D4E902128A60F0
:102D4000D4E902214A60211D42688A4201D1E1682A
:102D50004160002262610168491E016094F82C10F4
:102D6000012088402D49096808432C490860E16A20
:102D700001EB81012A4A02EB81014868A060826868
:102D8000E260211D826851608160E16A01EB81018E
:102D9000234A02EB81026261E16A01EB8101204A70
:102DA00052F82110491CE26A02EB82021C4B43F8E4
:102DB000221010E01B494868E0618268226204F139
:102DC0001801826851608160164AA2621146096842
:102DD000491C116000BF1449E06A0968C96A884249
:102DE00004D9012501201149086000E0002528468A
:102DF00070BD00004672656552544F535C74617338
:102E00006B732E63000000004572726F723A257377
:102E10002C25640D0A0000008400002060000020C2
:102E20008001002028040020480000206C000020C1
:102E300070B5002400265048006828B940F6B40256
:102E40004EA153A0FEF778F8FEF7A6FE4A480068A8
:102E5000401E494908600846006800287ED1504855
:102E6000006800287AD05BE04E48C068C468A06A59
:102E7000D4E907128A60D4E907214A6004F11801F5
:102E800042688A4201D1216A41600022A26201683F
:102E9000491E01606069D4E902128A60D4E9022106
:102EA0004A60211D42688A4201D1E16841600022E6
:102EB00062610168491E016094F82C10012088406D
:102EC00039490968084338490860E16A01EB810122
:102ED000364A02EB81014868A0608268E260211DE9
:102EE000826851608160E16A01EB81012F4A02EB47
:102EF00081026261E16A01EB81012C4A52F82110E2
:102F0000491CE26A02EB8202284B43F8221028494E
:102F1000E06A0968C96A884202D30120254908602D
:102F20002048006808B9012000E0002000289BD05C
:102F30000CB1FEF71BFC2048056865B100BFFFF728
:102F4000F9FC10B101201B4908606D1E002DF6D15F
:102F50000020194908601748006800E008E038B10F
:102F60000126300715490860BFF34F8FBFF36F8FFD
:102F7000FEF754FE304670BD840000204672656541
:102F800052544F535C7461736B732E6300000000E6
:102F90004572726F723A25732C25640D0A00000089
:102FA000580000202804002060000020800100203C
:102FB000480000206C0000206800002004ED00E0C4
:102FC0000000000000000000000000000000000001
:102FD000000000F800000000000000333000000096
:102FE00000100C06100C060000000000000000009D
:102FF00040C07840C0784000043F04043F0404000F
:10300000007088FC08300000001820FF211E00001E
:10301000F008F000E018000000211C031E211E0033
:1030200000F00888700000001E21232419272110B9
:1030300010160E000000000000000000000000005C
:10304000000000E018040200000000071820400003
:1030500000020418E00000000040201807000000F3
:10306000404080F0804040000202010F0102020057
:10307000000000F0000000000101011F010101003B
:10308000000000000000000080B0700000000000A0
:103090000000000000000000000101010101010129
:1030A00000000000000000000030300000000000C0
:1030B0000000000080601804006018060100000095
:1030C00000E010080810E000000F102020100F0092
:1030D000001010F8000000000020203F2020000019
:1030E0000070080808887000003028242221300071
:1030F00000300888884830000018202020110E0079
:103100000000C02010F8000000070424243F240021
:1031100000F80888880808000019212020110E00F6
:1031200000E0108888180000000F112020110E0008
:1031300000380808C83808000000003F0000000000
:103140000070880808887000001C222121221C00C1
:1031500000E010080810E0000000312222110F00EA
:10316000000000C0C000000000000030300000007F
:1031700000000080000000000000806000000000EF
:103180000000804020100800000102040810200008
:103190004040404040404000040404040404040053
:1031A00000081020408000000020100804020100E8
:1031B000007048080808F0000000003036010000E8
:1031C000C030C828E810E0000718272423140B009B
:1031D0000000C038E0000000203C23020227382015
:1031E00008F8888888700000203F202020110E00F9
:1031F000C0300808080838000718202020100800F0
:1032000008F808080810E000203F202020100F00D8
:1032100008F88888E8081000203F202023201800A4
:1032200008F88888E8081000203F2000030000000C
:10323000C03008080838000007182020221E0200AD
:1032400008F808000008F808203F210101213F206C
:10325000000808F8080800000020203F2020000097
:1032600000000808F8080800C08080807F00000087
:1032700008F888C028180800203F200126382000C0
:1032800008F8080000000000203F20202020300027
:1032900008F8F800F8F80800203F003F003F200041
:1032A00008F830C00008F808203F200007183F0049
:1032B000E01008080810E0000F10202020100F0078
:1032C00008F808080808F000203F2101010100006B
:1032D000E01008080810E0000F18242438504F00B0
:1032E00008F8888888887000203F2000030C302070
:1032F00000708808080838000038202121221C00AE
:10330000180808F8080818000000203F20000000F6
:1033100008F808000008F808001F202020201F00DF
:103320000878880000C83808000007380E0100003F
:10333000F80800F80008F800033C0700073C030009
:10334000081868808068180820302C03032C30206F
:103350000838C800C83808000000203F20000000DE
:1033600010080808C8380800203826212020180036
:10337000000000FE020202000000007F404040000A
:10338000000C30C000000000000000010638C00042
:1033900000020202FE000000004040407F000000EA
:1033A000000004020202040000000000000000000F
:1033B000000000000000000080808080808080800D
:1033C00000020204000000000000000000000000F5
:1033D00000008080808000000019242222223F20EB
:1033E00008F8008080000000003F112020110E002E
:1033F0000000008080800000000E112020201100BD
:10340000000000808088F800000E112020103F206E
:103410000000808080800000001F222222221300F2
:10342000008080F0888888180020203F202000003D
:103430000000808080808000006B949494936000F2
:1034400008F8008080800000203F210000203F20FD
:1034500000809898000000000020203F20200000FD
:10346000000000809898000000C08080807F0000ED
:1034700008F8000080808000203F24022D302000CA
:10348000000808F8000000000020203F2020000075
:103490008080808080808000203F20003F20003F8F
:1034A0008080008080800000203F210000203F209D
:1034B0000000808080800000001F202020201F004E
:1034C000808000808000000080FFA12020110E007D
:1034D0000000008080808000000E112020A0FF806E
:1034E000808080008080800020203F21200001001B
:1034F0000000808080808000003324242424190070
:10350000008080E0808000000000001F202000007C
:103510008080000000808000001F202020103F20BD
:10352000808080000080808000010E30080601004D
:1035300080800080008080800F300C030C300F00F2
:1035400000808000808080000020312E0E3120001D
:10355000808080000080808080818E70180601004D
:1035600000808080808080000021302C222130006B
:1035700000000000807C020200000000003F40408C
:1035800000000000FF00000000000000FF0000003D
:103590000002027C800000000040403F000000006C
:1035A0000006010102020404000000000000000007
:1035B000D035000800000020B8000000580F0008B7
:1035C00088360008B8000020B02F0000680F0008FF
:1035D00000000000000000000000000000000000EB
:1035E00000000000000000000000000001020304D1
:1035F00001020304060708090204060800A24A049F
:103600000000000000000000010203040607080992
:1036100000000000000000000000000000000000AA
:10362000000000000000000000000000000000009A
:10363000000000000000000000000000000000008A
:10364000000000000000000000000000000000007A
:103650001F0000000000000000000000000000004B
:10366000000000000000000000000000000000005A
:103670000000000000000000AAAAAAAA00000000A2
:08368000000000000000000042
:04000005080000ED02
:00000001FF
